:020000040000FA
:10000000900A0020F50000000F010000110100001F
:1000100000000000000000000000000000000000E0
:1000200000000000000000000000000013010000BC
:100030000000000000000000150100001701000092
:100040001901000019010000B507000019010000A6
:10005000190100000000000019010000B5060000B1
:100060001901000019010000190100001901000028
:100070001901000019010000190100001901000018
:100080001901000019010000190100001901000008
:1000900019010000190100001901000019010000F8
:1000A000190100001901000000000000000000001C
:1000B0000000000000000000000000000000000040
:1000C0000348854600F050FA0048004789130000B5
:1000D000900A0020401E00BF00BF00BF00BF00BF4D
:1000E00000BF00BF00BF00BF00BF00BF00BFF1D115
:1000F000704700000321094802680A43026008486B
:1001000002680A4302600748804707480047FEE745
:10011000FEE7FEE7FEE7FEE7FEE7000024050040FD
:100120005405004015070000C100000003460B43C2
:100130009B0703D009E008C9121F08C0042AFAD29D
:1001400003E00B780370401C491C521EF9D2704723
:1001500030B50B46014600202022012409E00D465F
:10016000D5409D4205D31D469540491B25469540E7
:1001700040191546521E002DF1DC30BDF0B51FB4FC
:100180000646002082B005464024019100901BE005
:10019000019922460F46304600F008FA049A059B62
:1001A000801A994110D310461946224600F0EEF904
:1001B000361A8F410197224601200021009F00F04E
:1001C000E5F938184D4100902046641E0028DFDC18
:1001D000019B00982946324607B0F0BDF0B50746AE
:1001E0000846584087B0C00F049048000E4659009A
:1001F00040084908BC1A884105D2384631461E4697
:1002000017460B4602465800400810434CD0300DAC
:10021000039040055900400D490D0590401A029089
:10022000402872DA18030121000B090508430190E8
:1002300004980092002805D001995242002088417C
:1002400000920190029840210A1A0199009800F04A
:100250009DF905460C466B4607CB00F0B8F9C0196E
:100260007141039A0E0D0023D71756401A467A4063
:10027000164344D0049A002A2DD0029A012A039AE8
:1002800015DC1205C01A914101263605001C71418A
:10029000D20F059ED2070093019202962A4623466A
:1002A00000F0B5F907B0F0BD38463146FAE716055B
:1002B000224A0F46B218C01AB74101210905001C95
:1002C0004F4100187F41114618187941E20F104341
:1002D0006D19644113E0E2076D0815436408C20715
:1002E0001443039A01261205C01A91413605001CD9
:1002F0007141CE07400830434908C01851412A4691
:10030000234600F077F9CDE7FFE70498012240008B
:10031000C117121A00238B4104983146C417381AAA
:10032000A141EEE730B40124E407634030BC55E757
:1003300030B40124E407614030BC4FE70000E0FF27
:10034000F0B51FB488B00B9909980024484009996A
:10035000C00F490049080991C0070B990090490056
:1003600049080B9109990898A64608431CD00B9997
:100370000A98084318D0099801244000420D48000B
:10038000410D099824050003000B204309900B98A8
:100390000003000B20430B9050181C49401800220A
:1003A00001901446104605E0002001460DB0F0BD56
:1003B000032801DA034600E003239C46C11A0AAE73
:1003C0000AE05F0008ADED5B4F00F75B7D4300275F
:1003D000AA187C41491C5B1E6145F2DD410004AB5B
:1003E0005A522104120C0A43240C401C0828DFDB5B
:1003F000019802900099704601910090059B049A23
:100400000799069800F003F9D0E700000DFCFFFF04
:10041000F0B50C465C4085B0E40FE40703944C0053
:100420000026640859009446490802460296224371
:1004300021D062460A431ED06200570D4A000E03C7
:100440002303550D012402462C492405781B1B0B60
:10045000360B401823432643614600901C46501A31
:10046000B44103D30098401C009002E09218009819
:100470005B41002803DA0020014605B0F0BD0020F2
:10048000012109050746864611E064461D46141BF6
:10049000B54106D36546521BB341744607430C432E
:1004A000A646CD0740084908284392185B410546F7
:1004B0000D43EAD11046184313D060461946504008
:1004C0007140084306D06046101AB34106D201229B
:1004D000002306E000220123DB0702E00122D243D1
:1004E0005310009874460105381C6141029C039D1D
:1004F0000019694100F07EF8BFE70000FD0300002D
:100500004A0009030123090B1B0519430A4B10B5C7
:10051000520D9A4202DA0020014610BD064B3433D8
:100520009A4203DC9A1A00F041F810BD034BD2182E
:1005300000F02CF810BD0000FF030000CDFBFFFF12
:1005400010B5002904DB0124E40740428C41214618
:10055000002B04DB1C460123DB075242A3419942D6
:1005600000D1904210BD0000064C0125064E05E06A
:10057000E36807CC2B430C3C98471034B442F7D3C4
:10058000FFF7A2FD681B0000881B000010B5202AA1
:1005900004DB0146203A9140002010BD9140202309
:1005A0009C1A0346E3401943904010BD10B5202A21
:1005B00004DB0846203AD040002110BD0B46D34052
:1005C000D0402024A21A91400843194610BD10B50E
:1005D000202A06DBCB170846203A1041C1170B43EF
:1005E00006E00B461341D0402024A21A9140084354
:1005F000194610BD10B5002B08DA0024401C6141DB
:1006000092185B411A4301D14008400010BDF0B57B
:100610001FB482B005460C0003D0084600F0D8F89D
:1006200002E000F0D5F8203002460090214628462E
:10063000FFF7ACFF049B059A04460F46184311438D
:10064000084314D0184610431BD0009840210A1AC2
:1006500018460599FFF7AAFF05460E46009A059928
:100660000498FFF793FF084305D0012004E02046DB
:10067000394607B0F0BD0020C11705430E432C4397
:10068000374300990E986305401A7905E40A002261
:100690000C43FD0A0A3002D500200146E9E70105B6
:1006A000101969410C9C0D9D00196941FFF7A2FFCB
:1006B000DFE70000FEB5134C0026E0680125124F6D
:1006C000002810D000F012FD00280BD00120B860E7
:1006D00068460670E0680190217C68460181A57437
:1006E00021688847FEBD094806600120B8600848B7
:1006F000066069460D7080688880A5746846216828
:10070000EFE700005400002000730040007100403B
:100710000075004010B500F0E3FD002805D01F492A
:100720001D484860C8131E4988611E48018CC9B223
:1007300001290BD1828C120708D1028D1206120FEB
:10074000042A03D1828D1206120F0AD0012921D169
:10075000818C09071ED1018D0906090F0A2904D0D1
:1007600007E0114A01219160F5E7828D1206120F10
:1007700005D00D290ED1808D0006000F0AD10B483F
:100780000168012904D00A49016001680129FCD1EE
:10079000C021416110BD0000DFFF07C0000500401F
:1007A000006C0040C00F00F00006004000EC064066
:1007B0007593000010B501F019F910BD10B5024B8A
:1007C000024A00F0D7F810BDD31200001800002034
:1007D0002021020C01D010211046020A01D010463F
:1007E0000839020901D01046091F820801D01046BD
:1007F000891E420801D0881E7047081A704702E01F
:1008000008C8121F08C1002AFAD17047704700209B
:1008100001E001C1121F002AFBD17047F0B51FB4DF
:1008200084B007980699020D014314D04A484B49F9
:100830001018484305140F9801280E981CD0281A48
:10084000401C0024464E4749009401910290002824
:1008500014DA474227E00F98012443A3012808D067
:10086000002104980F9A84600360C260416009B05F
:10087000F0BD0E98C143F4E74042E2E7074612E0BC
:10088000F80707D02246334601990098FFF758FD34
:10089000019100902246334610461946FFF750FD5D
:1008A00004460E467F10002FEAD10298019B0028D3
:1008B000009A0799069802DAFFF742FD01E0FFF778
:1008C000A7FD04460E460022284BFFF739FE03D849
:1008D0000020C043014607E00022254B2046314658
:1008E000FFF77CFCFFF70CFE102409E0002C0ADB6C
:1008F0000A220023FFF742FC059B30321A55641E82
:1009000002460A43F2D11122641C059B121B1C19DA
:100910000F9B012B03D0012308430ED10AE00843AB
:1009200004D011200E9000200F9084E70E98151A25
:100930006D1E0BE00E98824202DD00236D1C03E069
:10094000824201DA00236D1E002BEED004980F992D
:100950008260C16030C08AE701FCFFFF104D0000DB
:10096000000024400000F03F300000000000F04391
:100970000000E03FFFB597B00646002518E22528A5
:1009800077D100242746FD49049400E00443761CF7
:1009900032780120203A90400842F7D130782A2856
:1009A0000ED00222307801463039092916D8049930
:1009B0000A235943303940181443761C0490F1E758
:1009C000189802C804911890002904DA0120400305
:1009D00004434842049002200443761C30782E28B9
:1009E00014D1042004437078761C2A2809D1189861
:1009F000761C80C8189009E00A214F43303FC71980
:100A0000761C3078014630390929F5D930786C28C0
:100A100010D006DC4C281AD068280ED06A2817D1CE
:100A200004E0742813D07A2812D110E00120400588
:100A300004430CE00121090501E0032109050C43F1
:100A40007178814203D1012000052418761C761CA0
:100A50003078119066280BD013DC58287DD009DC43
:100A600000287BD04528F6D04628F4D047281AD154
:100A7000A5E118E0632835D0642870D0652812D12C
:100A80009DE170286CD008DC6728F1D069287BD004
:100A90006E280DD06F2806D1BAE073282ED07528A5
:100AA00071D0782859D01A9A199990476D1C7EE117
:100AB0006002400F022809D003280DD0042818989E
:100AC00001680DD00D60001D189070E11898EA17AC
:100AD00001680D604A60F6E7189801680D80F2E73A
:100AE0000D70F0E718986A4601781172001D189091
:100AF0000020507202A80090012005E0189802C85A
:100B0000189000200091C04361070DD5002101E03D
:100B10000199491C0191B94212DA8142F8DB009A2D
:100B2000515C0029F4D10BE0002101E00199491C3E
:100B300001918142FADB019A0099895C0029F5D183
:100B4000019904981A9B471A21463846199A00F0D1
:100B500097FA0199401945180BE04FE02CE113E09A
:100B60004EE0009800990078491C00911A9A199952
:100B700090470198401E0190401CF2D12146384612
:100B80001A9B199A10E137E00A2000210090019188
:100B90006002410F022907D0189A01CA1892C217A1
:100BA0009446032908D00AE01898C01DC108C9005E
:100BB00005C91891944607E000B2C217944604296B
:100BC00002D140B2C1178C4600226146944506DA34
:100BD0000A460021404291418C462D2102E0210528
:100BE00004D52B216A461173012103E0E10701D0EE
:100BF0002021F7E7029155E00A200AE0102008E0E2
:100C0000102000900021042004430191082703E0F4
:100C100008200021019100906002410F022907D0B5
:100C2000189A01CA189200229446032908D008E0B5
:100C30001898C01DC108C90005C91891944603E061
:100C400080B2042900D1C0B200210291210729D528
:100C50001199702906D0009A1021019B4A401A432D
:100C600005D00EE040216A461173012108E061467B
:100C7000014306D030216A46117311995173022144
:100C80000291009A0821019B4A401A430AD1614609
:100C9000014301D1610705D530216A461173012155
:100CA0007F1E02911199582904D035A10E910DA9EA
:100CB0000D910DE037A1F9E76146019B009AFFF71E
:100CC0005DFA0E9B8C469B5C0D9A521E0D92137022
:100CD00061460143F0D10D9805A9081A2030019012
:100CE000600703D501200004844300E00127019838
:100CF000874201DD381A00E0002001990090411878
:100D0000029809180498401A0490E00306D421467A
:100D10001A9B199A049800F0B3F94519002706E0C8
:100D200003A81A9AC05D199990476D1C7F1C029800
:100D30008742F5DBE0030CD521461A9B199A0498EB
:100D400000F09EF9451904E01A9A3020199990474D
:100D50006D1C0099481E00900029F5DC08E00D98F4
:100D60000D990078491C0D911A9A199990476D1C9C
:100D70000199481E01900029F1DC63E10928010076
:100D80003031323334353637383961626364656601
:100D900000000000303132333435363738394142C3
:100DA000434445460000000000F05AF94519761CFE
:100DB0003078002800D0E2E528461BB0F0BD60077F
:100DC00000D406271898C01DC108C90048680A68E1
:100DD0000831C30FDB071891190001D09CA108E06E
:100DE000210501D59BA104E0E10701D09AA100E013
:100DF0009AA1430011985B08109165280CD006DC7D
:100E0000452809D046281DD0472841D141E0662811
:100E100018D067283CD13CE00021112F01DB1120C4
:100E200000E0781C0191009008A911A8FFF7F6FCDA
:100E3000139905910021119A15927F1C1298019720
:100E4000009150E00120C00703900120019008A903
:100E5000009711A8FFF7E2FC139A1499059200225B
:100E6000119B009212981593059A0192002901D0C6
:100E7000104602E0791C40180190381A01D50198FB
:100E800004E04042401E0090781C0190C01B02907C
:100E900043E0012F00DA01270021112F01DD11208D
:100EA00000E038460191009008A911A8FFF7B6FCB0
:100EB00013990591119A00211298159200910197AA
:100EC00021070CD40599B94201DB019900E0019199
:100ED000012904DD159A491E515C302906D0B8421B
:100EE00001DA011D05DA0121029115E00199491E7F
:100EF000EDE7002805DC0099411800910199091AD5
:100F000003E0019A411C914200DD01910099401AD1
:100F1000401C02900120C0070390200706D40299CC
:100F20000198814202DB0020C04302900020694604
:100F3000C87707AF012103980337C907884224D037
:100F4000022011902B201290039800280CDA4042C6
:100F500003902D20129007E00A210398FFF7F8F87C
:100F600030317F1E039039701199481E119000296D
:100F7000F2DC03980028EFD1791E129808703078BF
:100F8000202108404530BF1E387006A8C01BC01D78
:100F9000039010980078002800D001200199411892
:100FA0000298C0170918039809180498401A401E9F
:100FB0000490E00306D421461A9B199A049800F085
:100FC0005FF8451910980078002803D01A9A1999EB
:100FD00090476D1CE00324D521461A9B199A04986A
:100FE00000F04EF845191CE00098002807DB009936
:100FF0000598884203DD1598405C199901E019991C
:1010000030201A9A904700986D1C401C009002985E
:10101000401E0290002804D11A9A2E201999904758
:101020006D1C0199481E01900029DDDC05E038782F
:101030001A9A7F1C199990476D1C0399481E0390BA
:101040000029F4DC21461A9B199A0498ACE60000AA
:101050002D0000002B000000200000000000000018
:10106000F8B5044600251E461746880404D405E05A
:1010700039462020B0476D1C641EF9D52846F8BDBE
:10108000FFB50446002581B01E46C80301D53027B0
:1010900000E02027880404D505E038460399B047CE
:1010A0006D1C641EF9D5284605B0F0BD70B5054627
:1010B000007800280BD1002406E068686100415EDA
:1010C00003A000F057F9641C2889A042F5D870BD30
:1010D00043757272656E742073616D706C652076F5
:1010E000616C75653A2025640D0A000070B51449DD
:1010F0000020124B0860134908608C681248427C3B
:10110000C5685600521CAC53D2B24274047CA24251
:1011100012D2846800226468002C0AD00122846004
:101120002068486001200860002A00D01860002074
:1011300070BD44688460F3E7012070BD007000401A
:10114000007100400075004054000020BFF34F8F35
:1011500004490348C860BFF34F8F00BFFDE700009C
:101160000400FA0500ED00E00EB5002102900091A8
:101170006A4601910148FFF7E9FF0EBD01400000FA
:1011800010B58268C368934203D000F08FF8002046
:1011900010BD052010BD002906D0002A02D0531E24
:1011A000134203D0092070470E20704701608380EE
:1011B00000218160C1600846704710B58268C3682D
:1011C0009A1A83889A4203D800F07AF8002010BD5A
:1011D000042010BD70B50446224888B01E460D009C
:1011E00042601CD0A888296882B21F48FFF7D3FF4D
:1011F000002815D1A889A96882B21B481030FFF7D2
:10120000CAFF00280CD1202218496846FEF78EFF3D
:10121000A06806902079002804D0012103E007206F
:1012200008B070BD00216846017506776079002816
:1012300000D00E2069464875E0780290A0780390AF
:1012400020780190607800900949684600F0A4F980
:101250000028E5D100F02AFA02480121401C00F0E4
:10126000FFF9DDE70800002034000020181B000013
:101270003D19000010B501460A48FFF79EFF040023
:101280000ED100F0B9FA00280AD107490548FFF746
:1012900077FF002804D10121034800F061FA0446D9
:1012A000204610BD4400002008000020826883888A
:1012B0001A4003689A5C0A708168491C8160704713
:1012C000C26883881A4003689954C168491CC16088
:1012D000704710B50446C0B2FFF7CCFF204610BDE2
:1012E0001048018CC9B2012917D1818C090714D18A
:1012F000018D09060A0F03D1828D1206120F0ED03E
:10130000090F012903D1828D1206120F07D003297C
:1013100003D1808D0006000F01D00020704701200E
:1013200070470000C00F00F030B50E4C87B0207839
:10133000002802D0002007B030BD0B4A04AB07CA1A
:1013400007C308480125401C009008480290680225
:10135000039001950323064A694604A8FFF73AFF64
:101360002570E8E7100000205C1B000084000020CE
:10137000291900000FB410B503A90298FFF71EFA4F
:1013800010BC08BC04B0184708B500200121204C4F
:10139000024603230D468540AD0202D585002D1976
:1013A0002B60401C2028F5D301251A4C6D05A56043
:1013B000E2601948194900680090684600F096F804
:1013C000002801D0FFF7D0FE154800F07FF8FFF7A6
:1013D000ABFF14A0FFF7CEFF0A21164800F044F837
:1013E000002801D0FFF7C0FE002600F09FF840BFA4
:1013F00020BF20BF642000F029F86068294681439F
:10140000A1602840E060761C0A2EEED3E4E70000DD
:101410000007005000050050141B0000AD10000034
:1014200000000020414443206578616D706C650DBB
:101430000A0000002000002003494018006800282E
:1014400000D00120704700000070004031B5054C0D
:1014500004E0401E00902046FEF73CFE0098002865
:10146000F7D138BDE703000070B5144CA27C022A06
:1014700016D00222A2746268A260217400216174F5
:10148000E0600F48126842600E4A8615116001251F
:1014900005602068002805D00B49012048600BE05A
:1014A000112070BD3046FFF7C7FF0028FAD0FFF7C4
:1014B0001DFE0028F6D0A574002070BD5400002049
:1014C0000075004000710040007300400021064A92
:1014D00041605168002902D15060704711464A6846
:1014E000002AFBD1486070475400002070B50C4DB5
:1014F0000C46A97C002901D0082070BD094A0021B2
:101500001160002C06D0002800D107480178072080
:1015100000F012F801202C60A874002070BD0000BB
:101520005400002000710040381B000001490120D8
:1015300008607047007000408207D30EFF229A4077
:101540008907090E10B5994000280BDA03071B0F15
:10155000083B9C080C4BA400E318DC6994430C4343
:10156000DC6107E08408094BA400E4182368934376
:101570000B432360C106C90E01208840044908605E
:101580000449086010BD000000ED00E000E400E048
:1015900080E200E000E100E0F3B52A4C0746E07E7F
:1015A00081B0002801D00820FEBD002F00D1264FB9
:1015B000012638783146814024488160386800F03F
:1015C0003EF90021786800F031F9214DB869686270
:1015D000787D397D0843E86603CFE8606961387B30
:1015E000083F01280FD10021B86800F01FF9387BAF
:1015F0003146814015488160F86800F020F9F968AB
:10160000B868A96028610298606039692160002883
:101610000ED0FF230F481D33397F0022C250FF2315
:101620004533C2500D4A0C4850600220FFF784FF3A
:10163000042028600020E0752076A075E676A0766C
:10164000FEBD0000680000203C1B000000050050AB
:1016500000250040002000408000020000230040E0
:10166000F8B5104B81245E680022A4000E4D002EB8
:1016700000D0AC60DF7D002F0BD01A7E002A04D092
:10168000002E00D06C601120F8BD1861012219767F
:1016900004E0D9750024D8605C761C7600F012F85E
:1016A000F8BD0000680000200023004010B5044C85
:1016B000A07E002803D100F003F90120A07610BD20
:1016C00068000020F8B5234DA87E104301D100F03A
:1016D000F7F86868204C002805D081201F49800059
:1016E00048600020F8BDFF20453000212150FF2137
:1016F0002531204600F0ADF80546FF21093120468E
:1017000000F0A7F80746FF214531204600F0A1F878
:101710000646394631432943E9D02846304306D1AD
:1017200000F0A4F80B48C17D407E8142DFD8002143
:101730000848002DC17501D00320F8BD002E01D04E
:101740000F20F8BD817E0120002901D02060C8E76C
:101750006060C6E7680000200020004000230040D1
:1017600010B5034600F048F8002801D0112010BD44
:10177000034A002091759360908200F003F810BD39
:1017800068000020F8B50026194FFF251D357E5151
:101790000120B86000F0A2F8164C6168002910D052
:1017A00022E0FF2701372946114800F052F80028AF
:1017B00002D1A08AB842F6D1A08AB84201D000F086
:1017C0008DF8A08AA17D8842EBD3A18AC81FF93881
:1017D0000CD0074F2946384600F03BF80028F9D0D6
:1017E0000120F8600020A0753046F8BD0F26F9E70B
:1017F00000200040680000200248807D002800D0C2
:10180000012070476800002030B552000A4399005B
:10181000039C0A432102049D0A4329040A43024906
:1018200080004018026030BD000700501CB5002247
:101830000B46009211460192FFF7E6FF1CBD1CB556
:10184000002100910B46012201911146FFF7DCFFB8
:101850001CBD4058002800D001207047032212020E
:1018600080184068084000D00120704730B50A4811
:10187000FF21C57D0022094C0931094B002D625022
:1018800007D09969437EC268D154417E491C417694
:1018900030BD986930BD0000680000200020004085
:1018A000002500401FB501236A46137010720348DB
:1018B000019106C8684690471FBD000068000020DF
:1018C000FF220548253200218150FF220932815034
:1018D000012101607047000000200040FF210748FF
:1018E0001D31002242500648828A8168895C828AC2
:1018F000521C82820348C1617047000000200040F2
:1019000068000020002500401FB500216A461170C4
:101910001072044882680192817506C86846904733
:101920001FBD00006800002010B50178022901D019
:10193000012902D14068FFF717FC10BD7CB5017882
:10194000284D01290AD002292FD000292CD129465F
:101950002548FFF715FC002833D036E040680178B1
:1019600021481038FFF729FC1F4C103C002805D0F7
:1019700001216A4611700190684608E0A068E1689C
:10198000081A012805D10020694608706846696870
:101990008847A068E168081AA188884204D81148DD
:1019A0000121401CFFF75CFE7CBD02216A461170DC
:1019B000C06801900B480121401CFFF751FE6846AA
:1019C0000CE001210748FFF7CBFE07488168C0689B
:1019D0008842E9D1032069460870684669688847EB
:1019E0007CBD00000800002044000020F0B5454DFB
:1019F000012185B049022846FFF730FF0127002664
:101A0000414C002824D0FF2125312846FFF721FF33
:101A100000281DD0FF2025302E5081203B4980001A
:101A20008860A07E002800D16F60022168460170A6
:101A30003749086808600390E17D68460172E068F4
:101A40000190E675267606CC6846083C90472BE068
:101A500004212846FFF702FF002825D0FF21093185
:101A60002846FFF7F6FE00281ED0FFF7FFFEE07DB8
:101A7000617E884218D1207E002808D0627EE1680D
:101A8000E0752069E0602676667610460AE0A07E62
:101A9000002800D16F6081201C4980008860E675B5
:101AA000607EE168FFF7FEFEFF211D312846FFF74B
:101AB000D0FE00280DD0A18AA07D814202D2FFF77E
:101AC0000DFF06E0FF211D316E50002801D0FFF709
:101AD0001BFFFF2145312846FFF7BBFE00280ED033
:101AE000FF2045302E50A07E002800D02F60E07DE2
:101AF000002804D0E675607EE168FFF7D3FE05B0EC
:101B0000F0BD0000002000406800002000230040DD
:101B10008024004003000000090000000B000000CA
:101B20000A000000080000000000000000000000A3
:101B300000E0D701030000000300000009000000DE
:101B40000B0000000A000000080000000000000078
:101B50000000000000E0D701030000000B09080AA4
:101B60000100000000E0D701881B000000000020F9
:101B700020000000FE070000A81B0000200000203D
:101B8000700A00000E0800000204000000000000BF
:101B90000000000000000000000000000000000045
:081BA000000000000024F40025
:04000005000000C136
:00000001FF
