:1000000000800020B9170000F9170000FB1700005E
:1000100000000000000000000000000000000000E0
:10002000000000000000000000000000FD170000BC
:100030000000000000000000FF1700000118000091
:100040000318000003180000351400000318000016
:10005000031800000000000003180000910C0000CD
:100060000318000003180000F90F00000318000037
:100070000318000003180000031800000318000014
:100080000318000003180000031800000318000004
:1000900003180000031800000318000003180000F4
:1000A000031800000318000000000000000000001A
:1000B0000000000000000000000000000000000040
:1000C00010B5064C2378002B07D1054B002B02D02E
:1000D000044800E000BF0123237010BD94000020FD
:1000E00000000000C424000008B5084B002B03D01A
:1000F0000748084900E000BF07480368002B00D10B
:1001000008BD064B002BFBD09847F9E70000000024
:10011000C42400009800002090000020000000008F
:10012000164B002B00D1144B9D46402292029A1A86
:10013000924600218B460F461348144A121A00F0CB
:1001400067F80F4B002B00D098470E4B002B00D0C8
:1001500098470020002104000D000D48002802D01F
:100160000C4800E000BF00F02DF82000290001F04D
:10017000CDFA00F011F8C046000008000080002011
:10018000000000000000000094000020380600205D
:100190000000000000000000084B10B5041C002BFC
:1001A00002D0002100E000BF054B1868836A002BD5
:1001B00000D09847201C00F033F8C0460000000033
:1001C000942200000E4B70B500251E1C0D4CE41A45
:1001D000A410A54204D0AB00F35898470135F8E7C6
:1001E00002F04AF8084B00251E1C084CE41AA41023
:1001F000A54204D0AB00F35898470135F8E770BD2D
:100200008800002088000020880000208C0000204A
:10021000031C8218934202D019700133FAE7704729
:10022000FEE7C0460378012B01D1014A13707047E5
:10023000B0010020F0B55F4656464D464446F0B446
:10024000C7B01F1C519B0D1C9A460A23191C2B1C5E
:10025000141C5A1E93410A1C5B421A409348019297
:1002600001F0DAF8002800D0DAE0002F00D1DFE05A
:100270000023984606AB0293539B202653449B468B
:1002800044465D46019B013B0593019A02989446C2
:10029000A444634684468346049331336344A344B1
:1002A0000393002A5ED05B4603215B420B409342DE
:1002B00000D9131C019A062A00D9DCE0131C029A0B
:1002C00016555A460132012B00D1DBE05A465670D2
:1002D0000232022B00D1E1E05A4696700332032B22
:1002E00000D1D8E05A46D6700432042B00D1CFE0BA
:1002F0005A4616710532062B00D0C6E05A46062132
:100300005671009106320199994228D00199C91A73
:100310008846043989080131880084460598C01A46
:10032000022811D902981B198146614C4B441C606C
:10033000012903D05C60022900D09C60009B6244CC
:1003400063440093C4450AD00098019C431C167076
:100350009C4204D902305670844200D99670019BA9
:100360009C46E3443021594488466821514B039A06
:100370001B680132009389465B46AC4608E01E705C
:100380005E709E70511E03330E700132434527D0BC
:10039000BC45F4D9BA4569D95099C95D0811C5B2AF
:1003A0002C1C3734092800DC073C0F2008401C7047
:1003B000041C3734092801D83030041C5C704C46CA
:1003C00000989E7040184078A0432E24002800D04A
:1003D0000C1C511E03330C70013701324345D7D139
:1003E0000D23039A049C1374033B53745A4626331B
:1003F0004334D6540299221C2F48654601F00AFB6B
:10040000E2B22A482C4900F073FF002808D127489F
:1004100001F002F8002803D10024BD4200D934E7DE
:10042000381C47B03CBC90469946A246AB46F0BD4E
:10043000002D36D0802106AB181C029349002B6892
:100440001E4A01F0F1FA0028EADB051C201C01F02D
:100450001FFB061EC22E00D9C226B046029B211CDD
:100460005819321C01F0D6FAA84405E751465298B3
:10047000791A415C92E700215A460091002B00D185
:1004800044E71CE7012100913DE7052100913AE78F
:100490000421009137E70321009134E70221009104
:1004A00031E706AB00250293D0E7C0466400002088
:1004B0002020202084000020B0000020F022000036
:1004C000F0B5474680B45A4DC6B0281C0C1C904667
:1004D0001E1C00F0A1FF002814D1002C17D0802191
:1004E00006AF2368381C4900524A01F09DFA0028E3
:1004F00008DB4C9B041C062B00D997E04E4A9B005E
:10050000D3589F46002046B004BC9046F0BD4C9B9B
:10051000062B00D988E0494A9B00D35800249F4607
:1005200006AF8021726833680092B2684900019278
:10053000F268381902923269091B0392424601F0AF
:1005400073FA061C002EDDDB802334195B009C420D
:10055000D8D83B4E06A9221C301C01F05BFAE2B24F
:10056000281C311C00F0C4FE031C58425841C0B284
:10057000C9E706AF8021726833680092B26849000B
:100580000192F268381902923269091B039272696A
:100590000492424601F048FA061CD3E7404601F0B7
:1005A00077FA0319061CFF2BCCD806AB1819414665
:1005B000321C01F02FFAC5E706AF802149003368ED
:1005C0003819091B424601F02FFA061CBAE706AF9C
:1005D000802172684900336838190092091B42462D
:1005E00001F022FA061CADE706AF8021726833687D
:1005F0000092B268490001923819091B424601F085
:1006000013FA061C9EE706AF8021726833680092D9
:10061000B26849000192F26838190292091B4246F9
:1006200001F002FA061C8DE7002492E700268BE712
:1006300064000020F022000098220000B422000094
:10064000B0000020F0B51B4F89B03B78051C002B93
:1006500003D0194B1B78834229D06A46174B6C464E
:1006600043CB43C243CB43C203CB03C20023237516
:100670000933009302330193033B0393104E02337B
:100680000293104B301C069300F0B4FD0022002DA5
:100690000BD0301C211C00F009FD002803D10123E0
:1006A0003B70054B1D7009B0F0BD074AF1E7002013
:1006B000F9E7C046B2010020B1010020D0220000BD
:1006C0006400002000E0D7012502000000487047C8
:1006D000C1040000004870473502000038B5002012
:1006E000FFF7B0FF041E0ED1FFF7F0FF051CFFF768
:1006F000F1FFFF22054B9A608222D2009D50044AEE
:100700001C605C609850201C38BDC046B4010020BD
:100710001404000008B50120FFF794FF08BDC0468F
:10072000F0B5474680B41B4D061C00208846AF68D4
:1007300000F0C8F9AA686B682C68D31801331B1B3A
:10074000012B07D8002B18D1002000F0C3F904BCFE
:100750009046F0BD631C00202B6000F0BBF907231E
:100760001E40F300424601263C40023492021E43E2
:10077000A40016432C196660E9E72921064B9B0269
:100780000B43611C14400234A4002C1929606360DF
:10079000DAE7C046B4010020F8220000F8B54F4661
:1007A0004646C0B4214E8146B3680020151C9846C9
:1007B0000F1C00F087F9B26873683468D3180133EE
:1007C0001B1B022B08D8002B22D1002000F082F93D
:1007D0000CBC90469946F8BDA31C0020336000F085
:1007E00079F94A46072313404122DB001343BF0235
:1007F0001F4343464246234002339B00F3185F6089
:10080000631C1A40131C02339B00F3185D60DFE782
:100810002923074989021943631C3360231C1340B1
:1008200002339B00F3185960CFE7C046B4010020A3
:10083000F8220000F0B557464E464546E0B4264E35
:100840001D1CB36880460020924699460F1C00F09C
:1008500039F9B26873683468D31801331B1B032B52
:1008600009D8002B2AD1002000F034F91CBC904696
:100870009946A246F0BDE31C0020336000F02AF93F
:100880004246072313408122DB001343BF021F436C
:100890004B464A46234002339B00F3185F60631CBB
:1008A0001340524602339B00F3185A604A46A31C79
:1008B000134002339B00F3185D60D7E729230749F3
:1008C00089021943631C3360231C134002339B00CD
:1008D000F3185960C7E7C046B4010020F8220000B1
:1008E000F0B54D465F4656464446F0B45D4D8DB07A
:1008F0006B682A68934200D18BE0AA685E1C1340A3
:100900009C1CA300EB185F68032390463B400FD16B
:1009100003223B04B90D9B0DCB184146F3185E1C16
:100920000B409C1CA300EB185F68131C3B40F0D0ED
:10093000022B2DD0BB051B0FBA0A9C46002B00D101
:100940008DE0F41806AB181C414631400231890095
:1009500069184968013602C0A642F5D16146009186
:100960008221B806C9006E58400F0021B047002808
:100970000CD06C602868041B601E8441E0B20DB08E
:100980003CBC90469946A246AB46F0BD6C68F1E788
:10099000731C9946434641464846334002339B0008
:1009A000EB185A6881433B049B0D0131BE0D9B46F9
:1009B00089008E422FD9002942D040464B4618402C
:1009C000023080002818031D9846CBB2F11A9C46CD
:1009D000CBB205930C239A46059BAA44414600914D
:1009E00061460191514602911F4903936958B80627
:1009F0008C46400F00215B46E047B0422AD01B4B9B
:100A00008005000C3B40A4002C19034363606C6814
:100A1000B0E70020B3E74B46414619400231890058
:100A20006918043100910021029103910E49019649
:100A30006B58B8069C4600215B46400FE047DCE758
:100A4000F1B28C4600218A460C310023884605937A
:100A5000A844C3E7033080084844041C89E7341CD9
:100A600006AB7BE7B4010020140400003F00FFFF49
:100A7000002300B585B001AA9060002103481380CF
:100A8000536000F005F805B000BDC046014000000D
:100A900008B501200849FFF743FEFFF73BFEFFF7CB
:100AA0001FFF0028FBD1BFF34F8F044A044BDA60CD
:100AB000BFF34F8FC046FDE7042300000400FA0592
:100AC00000ED00E072B6024A13680133136070470C
:100AD000CC050020034A1368013B1360002B00D1B2
:100AE00062B67047CC050020A021012210B5084B4A
:100AF000C905CC58074B1B5C9A40131C101CA12243
:100B0000A043D2008850044A23408B5010BDC046F9
:100B1000040500001C2300000C050000A023032294
:100B20000B49DB055A5004315A500A495A500431D6
:100B30005A50A1228021D200890399508021C903F3
:100B40009950802109049950802149049950704797
:100B5000540700005C07000038B50C4C0D1CA27C4B
:100B60000823002A01D0181C38BD094B1A6000293F
:100B700005D0002808D00178072000F0DFF8012315
:100B80002560A3740023EEE70248F4E7D0050020B7
:100B9000007100402023000000234360064B5A6888
:100BA000002A01D105E01A1C5368002BFBD15060CC
:100BB00070475860FCE7C046D0050020F0B54446B9
:100BC0005F4656464D46F0B42D4C1123A27C022AB6
:100BD00018D00F3BA3740023E060A020626821744A
:100BE000A26028491268284E63748A51274AC000BF
:100BF000136001330B502568002D0AD0C1229200EA
:100C00008B500023181C3CBC90469946A246AB462C
:100C1000F0BDA123DB00904683469C46B146136895
:100C2000002BFCD043461D605B466646CD508E5976
:100C3000637CB2465046E7685E00F0530133267C81
:100C4000DBB263749E4216D9A3685B68002B09D09F
:100C50004846A3601B680B505B460120C850012327
:100C60000B60DCE748466368A3601B680B505B467B
:100C70000120C850D3E70123A3740023C2E7C04674
:100C8000D005002000700040040500000071004005
:100C9000F0B5264A85B0D468002C33D0A0200025BA
:100CA000A126234B2349C0001D600D50537CF60044
:100CB0008F595E0037530133167CDBB25374B34255
:100CC0000CD293685B68002B14D093601A681A4B9F
:100CD000CA5001230B500B6005B0F0BDC2200123A8
:100CE00080000B5001A8937405704460068113685E
:100CF0009847F1E7536893601A680F4BCA50012375
:100D00000B50E9E70A4BC2201C600123094980000F
:100D10000B50F930FF300C50A12401A80370E400FF
:100D200009599374818013689847D5E7D00500204E
:100D3000007100400070004004050000F0B500287C
:100D400020DBFF271B4B03229C463B1C8408C0264C
:100D5000C0B20240D2009340A4006444B600A5593A
:100D60009D438B013B409340191C2943A1511F23F4
:100D700018401E3B8340C022181C0E4B5200985056
:100D80001860F0BDFF260C4A03249446321C0F2342
:100D9000C0B20440E400A2400340083B9B089B0013
:100DA0006344DD6995438A013240A240111C294306
:100DB000D961DCE700E100E000ED00E0044B8520B4
:100DC0001A78002A00D0704701321A700020FAE722
:100DD000E4050020F8B54F464646154BC0B48146A1
:100DE000144D00240127984607E000200134FFF746
:100DF00071FEB543E4B2002D14D03E1CA640002085
:100E0000FFF760FE3542F0D043461B683342ECD119
:100E10001E4343461E604B4600201C70FFF75AFEDF
:100E2000002000E004200CBC90469946F8BDC04666
:100E3000E8050020FFFF000030B5002918D0002A87
:100E400016D00123834007241D0401D1201C30BD8E
:100E5000084C256808241D42F8D0074BC0009C466A
:100E6000A2236044DB00C150044B0024C250EDE7D4
:100E70000E24EBE7E805002000F001401405000017
:100E80000123F022834012030720134200D0704751
:100E90001A0404D0044A013012681A42F7D0034AF7
:100EA000034900208B50F2E7E8050020040500000C
:100EB00000F00140344BF0B557469A4645464E4641
:100EC00090465246E0B404790827660033199B0027
:100ED000D218157A002D05D0381C1CBC90469946B6
:100EE000A246F0BD4546002D4BD05746DD514B681C
:100EF0000027536042790023002A0BD005689A002E
:100F0000AC464132FF326244176001334279DBB2B2
:100F10009A42F3D8804603680F1C180B40B2C97878
:100F2000FFF70CFF434601221B68184978785B588D
:100F30001040934303434046006834194350032054
:100F4000814643464D461B6804315B58B878AB4335
:100F50002840034340460068A40043500F21434605
:100F60008846A2201B6845469C46C00039781B581D
:100F70002940AB430B43614654440B502272002777
:100F8000AAE70727A8E7C046EC05002004050000F3
:100F9000012203681A6003795A00D318024A9B00A1
:100FA000D31802221A727047EC050020F0B5022611
:100FB00005AC27788024FF368E400568A4002D59A3
:100FC000B54306683551066835592B4333518023A4
:100FD0005B028B40002F09D1C2240568A4002B516D
:100FE00051310368FF318900CA50F0BD05340568EE
:100FF000FF342B51F4E7C04608B5264B1A68002A87
:1010000005D0C122244992008A58D20327D4234B09
:101010001A68002A05D0C1221F4992008A589203FB
:1010200026D41F4B1A68002A05D0C1221A49920003
:101030008A58520325D41B4B1A68002A05D0C122B6
:10104000154992008A58120300D408BD0022A62038
:101050001A60154B400059681B689847F5E7002255
:10106000A0201A60104B400059681B689847CEE7D3
:101070000022A2201A600C4B400059681B68984758
:10108000CFE70022A4201A60074B400059681B6874
:101090009847D0E740A1004000A0004044A1004094
:1010A00048A100404CA10040EC050020F8B54F4697
:1010B0004646C0B40679494DF400A31B9B00EB18CB
:1010C000DF7E91460823002F04D0181C0CBC9046EC
:1010D0009946F8BD0F687B1C0CD00123A122BB40B0
:1010E000A027D200FF05BB5003220B68C133FF339A
:1010F0009B00DA514B685A1C06D0A0270022C1334E
:10110000FF339B00FF05DA5107688A69344BFA50B8
:101110000F7D4B7D02683B43324FD3510A68036811
:101120009446314F4A68DA516246304FDA510B7DAE
:10113000012B2CD04A46A31B9B00071CE8184260D9
:101140000869E850002A12D08E2200233868520025
:10115000097F8350386828328350C1233868244A75
:101160009B00C2503B68180B40B2FFF7E7FDA0237D
:1011700004213A68DB00D15000230121A41BA40004
:101180002C19E3752376A375E176A3769DE78B682A
:101190005A1C06D0A0270022C133FF339B00FF0555
:1011A000DA51CB685A1C0ED001279F40A1223B1C6C
:1011B000A027D200FF05BB500322CB68C133FF3309
:1011C0009B00DA51CB688A6807689446A122D20056
:1011D000BB50A2236246DB00FA50ABE7F8050020C3
:1011E000240500006C050000140500000C0500003B
:1011F00080000200F0B55F4656464D464446A023A7
:101200000022F0B40168DB000779CA50334B83B089
:101210009C46FB00DA1B920062445268002A0DD003
:10122000C22204682E499200A150012102682D4C6F
:10123000D203D20E91400A1C8021625002682A49D2
:10124000A22655588A462949F6008B465158B04681
:101250000091A121C9008946515896595C460196D2
:1012600001267642165154461651026848461650D9
:10127000404616506A1C06D0A0220220C135FF3518
:10128000AD00D205A850009C621C06D0A02202200E
:10129000C134FF34A400D205A050019A501C06D0DE
:1012A000A0200224C132FF329200C00514504A1C13
:1012B00006D0A0220220C131FF318900D20588501A
:1012C0000022DB1B9B006344DA765A6003B03CBC0F
:1012D00090469946A246AB46F0BDC046F8050020B0
:1012E0008402020000E100E00C050000140500008B
:1012F000F0B55F46564644464D46F0B4047985B095
:10130000E3001B1B424C9B00A44663441E1C9C7DB7
:1013100010361127002C07D0381C05B03CBC904675
:101320009946A246AB46F0BD99608E21B480B27159
:10133000037901229846036849005C5003689A606B
:1013400043464246DB009C469B1A314A9B0091462D
:101350004B449A68066891464D4674501C1C9A8A04
:101360001034AF5C9A8A5D68013292B29A82294A3F
:10137000B7500027002DCFD1A779802403926400B5
:101380001A1C10329688BE4229D2066804E01A1C44
:1013900010329288A24202D07258002AF7D01A1C4A
:1013A000103201929588A542EAD000257550019D22
:1013B000AD88AA464D465246AA5C6D460292019AF5
:1013C00000929288924601229346DA445246AA80BD
:1013D000AA88009DAA80039A029DB550D0E7802379
:1013E00092885B009A4211D08E21026849005358BE
:1013F000002BFCD001230027D360424663469B1A92
:10140000034A9B00D5180023AB7585E70F27F4E747
:10141000F80500201C0500000279D3009B1A044A3D
:101420009B00D318987D431E9841C0B27047C046B8
:10143000F8050020C12310B5614A9B00D35884B041
:101440009B054FD592235B00D15800294AD000213B
:10145000D1508121E5338900FF33D150594B997E1A
:10146000002901D101315160022269460A709021A0
:101470005348C9004258425069460392DA7D684693
:101480000A72DA68196801920022DA751A765B68C6
:1014900098478E214A4A49005358002B0FD0494B98
:1014A0009C8A987D84424FD200205050998A986837
:1014B000405C998A013189B29982434BD050A22372
:1014C0003F4A5B00D15800290AD00021D1503D4B42
:1014D000997E002901D001211160DA7D002A42D1D4
:1014E00004B010BDC123364A9B00D3585B07D0D54A
:1014F000842149005358002BCBD0324BD87D002893
:101500003ED15050A321C90052585A7E8242C0D1C8
:101510001A7E002A42D19A7E002A02D10121284A4D
:1015200051608120C222264980009200885000220A
:1015300068460121DA755A7E01700272DA6819680C
:1015400001925B689847A4E7002454500028B6D065
:101550006A46147010729A689C75196801925B68EB
:1015600068469847ABE7002268460121DA755A7E43
:1015700001700272DA68196801925B689847AFE7F8
:1015800000205050A320C000597E1258D868425401
:101590005A7ED87D0132D2B25A76B6E7DA751A6928
:1015A000D968DA6000226C46587E1A765A76013283
:1015B000207201912270196868465B68984768E755
:1015C00000200040F80500201C0500007047C046C0
:1015D000F0B5474680B40378051C002B0DD01848A1
:1015E0000621FFF7EBFA002801D0FFF741FA0020AF
:1015F000FFF77AFA04BC9046F0BD124B03201A782C
:1016000011499846FFF7CAF82B89002B12D0002405
:101610000E4F0F4E3178201C00F0F0F90A1C69685B
:1016200063005B5E0320391CFFF704F92B8901344A
:10163000A342EFD8434642461B7801331370CEE7EE
:1016400018060020250600202C230000502300004F
:101650001406002008B5044B1878FFF711FC002889
:1016600001D0FFF705FA08BD2406002010B584B0AC
:10167000FFF7A4FB002838D1002303221C4C02A949
:101680004B708B70CA704B60201C0933194A0B7069
:10169000FFF710FC002825D1A223174ADB00D358FE
:1016A000FF221A40154B201CD3401A1C0123002195
:1016B0000093FFF77BFC201CFFF76AFC104C201CFA
:1016C000FFF788FB00280AD120780E490E4AFFF761
:1016D000B3FB002801D0FFF7CBF904B010BDFFF732
:1016E000C7F9F1E7FFF7C4F9D6E7FFF7C1F9C3E798
:1016F00024230000CD15000000A000400024F400C9
:101700002406002040A100400070004030B583B0A6
:10171000FFF704FAFFF7AAFF032301A81F4903708C
:10172000FFF71AFA002801D0FFF7A2F91C250824B8
:101730001B480378AB4323430370FFF72DFA194886
:101740000378AB4323430370FFF726FA1648037868
:10175000AB431C430470FFF71FFA0322134B1A70AC
:10176000FFF778FF0020FEF7B9FF002801D0FFF750
:101770007FF903200E49FEF7D3FF0E480621FFF73D
:101780001DFA002801D0FFF773F920BF40BF20BF2A
:10179000FFF7A6F80028FBD1F7E7C046D1150000F7
:1017A0006C0000207C000020740000201406002043
:1017B000742300001806002003210A4802680A4327
:1017C0000260094802680A4302600849084A094B56
:1017D0009B1A03DD043BC858D050FBDC00F012F824
:1017E000FEF79EFC2405004054050040D024000074
:1017F0000000002094000020FEE7FEE7FEE7FEE781
:10180000FEE7FEE7304B1B78012B00D070472F4BD3
:101810001B681B07FAD1F0222D4B1B68134027D100
:101820002C4B1B68134229D0284B1B681B07EDD19A
:10183000F022274B1B681340402B32D0244B1A68F0
:10184000F0231340A02B01D0D02BDFD1214B1A68FD
:10185000F0231A42DAD1204A1368012B04D01F4B1F
:1018600013601368012BFCD1C0221D4B1A60CDE719
:10187000102B0FD1174B1B681342D9D1194A1A4BA1
:101880001A608022194B12021A600F4B1B78012B31
:10189000CAD0BBE7302BCBD10E4B1B681342C7D14C
:1018A000ECE70C4B1B681342C8D1C12380220121F5
:1018B000DB00D205D150044B1B78012BA6D1034B82
:1018C0001B681B07BAD0A1E7E00F00F0E40F00F09F
:1018D000E80F00F0EC0F00F000EC064075930000FC
:1018E00014EC0640DFFF07C004050040186C004000
:1018F000002243088B4274D303098B425FD3030A4F
:101900008B4244D3030B8B4228D3030C8B420DD361
:10191000FF22090212BA030C8B4202D312120902EF
:1019200065D0030B8B4219D300E0090AC30B8B422D
:1019300001D3CB03C01A5241830B8B4201D38B03DB
:10194000C01A5241430B8B4201D34B03C01A524180
:10195000030B8B4201D30B03C01A5241C30A8B42C3
:1019600001D3CB02C01A5241830A8B4201D38B02AE
:10197000C01A5241430A8B4201D34B02C01A524152
:10198000030A8B4201D30B02C01A5241CDD2C309C4
:101990008B4201D3CB01C01A524183098B4201D340
:1019A0008B01C01A524143098B4201D34B01C01A2B
:1019B000524103098B4201D30B01C01A5241C308A3
:1019C0008B4201D3CB00C01A524183088B4201D312
:1019D0008B00C01A524143088B4201D34B00C01AFE
:1019E0005241411A00D20146524110467047FFE76A
:1019F00001B5002000F00CF802BDC0460029F7D068
:101A000003B5FFF775FF0EBC4243891A1847C0465D
:101A10007047C046002310B5934203D0CC5CC45439
:101A20000133F9E710BD00000CB430B5174B9DB081
:101A30001D68002904DA8B2301202B6040421FE03F
:101A4000822302AA9B009381002302901061994295
:101A500000D04B1E9360536101235B42D3810C1C69
:101A600021AB111C281C209A019300F079F8431C2B
:101A700001DA8B232B60002C02D00023029A137012
:101A80001DB030BC08BC02B01847C0466000002042
:101A90000023C25C0133002AFBD1581E70470000AE
:101AA000F0B58E6885B0071C0C1C03920193B342FD
:101AB00045D390238A89DB001A423DD0032509696A
:101AC000236801985B1A029363695D43EB0F5D190C
:101AD000029B6D1001331B189D4200D21D1C381C47
:101AE00053050FD5291C00F01DFB061E13D0029ACA
:101AF0002169FFF78FFFA289184B134080221343FF
:101B0000A38111E02A1C00F065FB061E0CD1381CD5
:101B1000216900F0C1FA0C23402201203B60A38917
:101B200040421343A38117E0029B2661F61826600A
:101B30006561019EED1AA560019BB34200D2019E32
:101B4000321C2068039900F092FA0020A3689B1BC6
:101B5000A36023689E19266005B0F0BD7FFBFFFFE0
:101B6000F0B59FB0029005938B890E1C171C1B06C5
:101B700010D50B69002B0DD1402100F0D3FA306055
:101B80003061002804D10C23029A01381360D0E0A0
:101B900040237361002306AD6B6120336B761033F5
:101BA000AB763C1C2378002B03D1E31B049312D0AB
:101BB00003E0252BF9D00134F4E7049B0298311C93
:101BC0003A1CFFF76DFF431C00D1ACE06A69049B2F
:101BD000944663446B612378002B00D1A3E001227B
:101BE000002352426A6002A95432521801342B6019
:101BF000EB60AB601370AB654F4F2178381C05224A
:101C000000F02AFA002808D0C01B01278740381CA2
:101C10002B68013418432860EEE72B68DA0604D5F8
:101C20005322202102A8121811701A0704D553223A
:101C30002B2102A81218117022782A2A01D0099BA0
:101C40000EE0059A111D12680591002A01DB099228
:101C500004E05242EA60022213432B60013409E09F
:101C60002278303A092A04D80A214B4301349B18C0
:101C7000F6E7099323782E2B18D163782A2B09D104
:101C8000059B02341A1D1B680592002B0DDA0123F7
:101C90005B420AE0002301342278303A092A04D852
:101CA0000A214B4301349B18F6E70793234F217811
:101CB000381C032200F0D0F9002807D0C01B4027B1
:101CC0008740381C2B6801341843286021781C4851
:101CD0000622671C297600F0BFF9002812D0194BA4
:101CE000002B06D10722059B073393430833059346
:101CF00014E005AB00930298291C321C124B00E043
:101D000000BF07E005AB00930298291C321C0E4B64
:101D100000F08AF80390039B013304D06B69039AA7
:101D20009B186B613DE7B3890B985B0601D50120D9
:101D300040421FB0F0BDC04691240000972400002F
:101D40009B24000000000000A11A0000F7B5171C3A
:101D500001930A698B6800900C1C934200DA131CF3
:101D6000221C3B6043321278002A01D001333B60D1
:101D700023689B0602D53B6802333B600625236837
:101D80001D401ED0231C43331B785A1E93412268EA
:101D900092061CD53020E1184031C870211C5A1C15
:101DA00045310978A21840320233D1700FE0221C6D
:101DB0000123009801991932089EB047431C0ED0A8
:101DC0000135E3683A689B1A9D42F0DBDAE7221C92
:101DD000009801994332089DA847431C02D1012075
:101DE000404220E006232068E1683A68034000256D
:101DF000042B03D18D1AEB43DB171D40A368226926
:101E0000934201DD9B1AED180027AF420ADA221C2B
:101E10000123009801991A32089EB047431CDED076
:101E20000137F2E70020FEBDF0B58BB006920A1C28
:101E300043320793059004920A7E0C1C109B6E2A75
:101E400000D1A8E011D8632A22D009D8002A00D1F5
:101E5000B2E0582A00D0C2E045310A707C4A4FE017
:101E6000642A1DD0692A1BD0B9E0732A00D1A7E0EB
:101E700009D86F2A29D0702A00D0B0E02022096842
:101E80000A43226037E0752A1FD0782A33D0A6E0B3
:101E90000E1C1A684236111D196013683370A1E0D8
:101EA00021681A68080606D4490604D5111D196070
:101EB0000023D55E02E0111D19601568002D3BDA84
:101EC0002D23049A6D42137036E021681A680806C3
:101ED00006D4490604D51568111D1960ADB202E09B
:101EE000111D196015685A4B227E03930A276F2A29
:101EF0001DD108271BE0221C782145321170554A5C
:101F000019680392081D226818600D68100602D433
:101F1000500600D5ADB2D30702D520231A43226064
:101F20001027002D03D1202322689A432260231C0E
:101F3000002243331A7002E00A27454B039363687B
:101F4000A360002B03DB0422216891432160002D54
:101F500002D1049E002B0ED0049E281C391CFFF7D2
:101F60004DFD039B013E5B5C281C3370391CFFF761
:101F7000BFFC051EF1D1082F09D12368DB0706D568
:101F800063682269934202DC3023013E3370049B74
:101F90009B1B23612BE009681A68080607D44906D1
:101FA00005D5111D19601368A28A1A8004E0111D5D
:101FB0001960136862691A600023049E236116E0A9
:101FC0001A68111D196016680021301C626800F043
:101FD00043F8002801D0801B6060636803E0261C82
:101FE00042363270012323610023049A1370079B49
:101FF00005980093211C069B09AAFFF7A7FE431C26
:1020000002D10120404221E0236905980699321C43
:10201000079DA847431CF4D023689B0705D4099B60
:10202000E068984212DA181C10E00025E368099A6B
:102030009B1A9D42F3DA221C012305980699193256
:10204000079EB047431CDCD00135EFE70BB0F0BD75
:10205000A2240000B3240000C9B28218904204D028
:1020600003788B4202D00130F8E70020704710B5AA
:10207000814208D28B18984205D29B1A013A09D3A3
:10208000995C8154FAE70023934203D0CC5CC4549A
:102090000133F9E710BD000030B500293ED0043906
:1020A0000B68002B00DAC9181D4A1368141C002B9A
:1020B00002D14B60116031E099420DD208680A18D4
:1020C0009A4203D11368C3180B6053684B602160B8
:1020D00024E08A4203D8131C5A68002AF9D11D68EB
:1020E0005C198C420BD10968691858181960904224
:1020F00014D110685268091819605A600EE08C42B9
:1021000002D90C23036009E008680C18944203D13B
:1021100014685268001908604A60596030BDC046B2
:102120002C060020032370B5CC1C9C430834051CEE
:102130000C2C01D20C2405E0002C03DA0C23002027
:102140002B6042E08C42F9D3204A1368101C191C02
:10215000002913D00A68121B0DD40B2A02D90A6079
:102160008B181FE08B4202D15A6802601BE04A685C
:102170005A600B1C17E00B1C4968E9E7144E3368E2
:10218000002B03D1281C00F04BF83060281C211CC8
:1021900000F046F8031C421CD0D00322C61C964314
:1021A00086420AD11C60181C07210B301A1D884377
:1021B000821A0AD05142995007E0311A281C00F0C7
:1021C0002FF8431CBAD0331CECE770BD2C0600205E
:1021D00028060020F8B5061C0C1C151C002904D18B
:1021E000111CFFF79FFF041C18E0002A03D1FFF722
:1021F00053FF2C1C12E000F025F8A8420ED2301C30
:10220000291CFFF78FFF071E07D0211C2A1CFFF790
:1022100001FC301C211CFFF73FFF3C1C201CF8BDBB
:1022200038B50023064C051C081C236000F016F886
:10223000431C03D12368002B00D02B6038BDC0465F
:10224000340600200B1F1A68101F002A04DA8918B0
:1022500004390B68D018043870470000044A13682A
:10226000002B03D018181060181C7047014BF9E7B9
:102270003006002038060020F8B5C046F8BC08BC7F
:102280009E467047F8B5C046F8BC08BC9E467047ED
:1022900043000000000000209C050000BA0500007B
:1022A000D0050000EA050000080600002205000035
:1022B000740500009C050000B8050000CE05000074
:1022C000E805000006060000200500007205000079
:1022D000FFFFFFFFFFFFFFFFFFFFFFFFFFFFFFFF0E
:1022E000000000000000000000E0D7010300000033
:1022F0005B253038645D00004F766572666C6F77E1
:102300000D0A00004150505F4552524F523A45521B
:10231000524F523A466174616C0D0A001516171837
:102320000300000000A00040000400004150503AAB
:10233000494E464F3A2020616463206576656E748D
:1023400020636F756E7465723A2025640D0A000073
:102350004150503A494E464F3A4144432076616CD1
:102360007565206368616E6E656C2025643A202572
:10237000640D0A004150503A494E464F3A20202001
:1023800020414443206578616D706C650D0A000042
:102390000020202020202020202028282828282035
:1023A000202020202020202020202020202020202D
:1023B0002088101010101010101010101010101095
:1023C0001004040404040404040404101010101085
:1023D000101041414141414101010101010101014F
:1023E00001010101010101010101010110101010A1
:1023F0001010424242424242020202020202020221
:102400000202020202020202020202021010101074
:10241000200000000000000000000000000000009C
:1024200000000000000000000000000000000000AC
:10243000000000000000000000000000000000009C
:10244000000000000000000000000000000000008C
:10245000000000000000000000000000000000007C
:10246000000000000000000000000000000000006C
:10247000000000000000000000000000000000005C
:10248000000000000000000000000000000000004C
:1024900000232D302B2000686C4C00656667454694
:1024A00047003031323334353637383941424344CE
:1024B000454600303132333435363738396162635E
:0824C0006465660000000000E5
:0824C80058DCFF7F0100000059
:1024D00000000000000000000000000000000000FC
:1024E00000000000000000000000000000000000EC
:1024F000902200000000000000000000000000002A
:1025000000000000000000000000000000000000CB
:1025100000000000000000000000000000000000BB
:1025200000000000000000000000000000000000AB
:102530000000002000200040000000000204000015
:1025400000000000028000000000000002400000C7
:102550000000000090230000E9000000C10000001E
:042560000000000077
:04000003000017B929
:00000001FF
