:020000040001F9
:1080000068310020F58001000F810100118101001D
:108010000000000000000000000000000000000060
:1080200000000000000000000000000013810100BB
:108030000000000000000000158101001781010010
:108040001981010019810100458501001981010094
:1080500019810100000000000D830100AD820100C4
:1080600019810100198101001981010019810100A4
:108070001981010019810100198101001981010094
:108080001981010059840100198101001981010041
:108090007984010019810100CD840100198101005A
:1080A000198101001981010000000000000000009A
:1080B00000000000000000000000000000000000C0
:1080C0000348854600F0BEF80048004769C6010035
:1080D00068310020401E00BF00BF00BF00BF00BFCE
:1080E00000BF00BF00BF00BF00BF00BF00BFF1D195
:1080F000704700000321094802680A4302600848EB
:1081000002680A4302600748804707480047FEE7C5
:10811000FEE7FEE7FEE7FEE7FEE70000240500407D
:1081200054050040F1840100C180010030B50B46C8
:10813000014600202022012409E00D46D5409D4241
:1081400005D31D469540491B2546954040191546C7
:10815000521E002DF1DC30BD70B5002425460028EC
:1081600001DA01244042002901DA01254942FFF7E2
:10817000DDFFAC4200D04042002C00D0494270BD2F
:1081800003460B439B0703D009E008C9121F08C030
:10819000042AFAD203E00B780370401C491C521EDB
:1081A000F9D27047D2B201E00270401C491EFBD2E6
:1081B00070470022F6E710B513460A4604461946F2
:1081C000FFF7F0FF204610BD30B5044600200346FF
:1081D00000E05B1C934203D2E05CCD5C401BF8D016
:1081E00030BDF0B51FB40646002082B005464024DD
:1081F000019100901BE0019922460F46304600F0A5
:1082000043F8049A059B801A994110D310461946E9
:10821000224600F029F8361A8F41019722460120A4
:108220000021009F00F020F838184D4100902046B2
:10823000641E0028DFDC019B00982946324607B007
:10824000F0BD0000064C0125064E05E0E36807CCB2
:108250002B430C3C98471034B442F7D3FFF734FF5C
:1082600010E0010030E0010010B5202A04DB0146D7
:10827000203A9140002010BD914020239C1A0346D3
:10828000E3401943904010BD10B5202A04DB084696
:10829000203AD040002110BD0B46D340D0402024CE
:1082A000A21A91400843194610BD00001CB50F49A1
:1082B000002008600E488068022280B201A900F008
:1082C0002FFC6846808805F047FC68468288D1B25A
:1082D0000170120A427007A000F074F90222694688
:1082E000094801F001FC4ADF1CBD0000007100409C
:1082F0000075004041444320726573756C743A20E8
:10830000255825580D0A000084240020F8B50024C3
:10831000FF250135012627460094284604F0DAFCA3
:10832000002808D034484068304204D03348002147
:108330002818344301602D1D76007F1CADB2042F38
:10834000EBD3FF207D3004F0C5FC002807D02C487B
:1083500000210160400704432A48006900902A4F29
:10836000200712D00126002526420AD02748AA005D
:10837000111808690969C004C00E8903BA58890F29
:10838000904776006D1C042DEED3002C30DA0024CB
:108390001D4E0421301940304156491C25D0077923
:1083A000BD06AD0E284601F04FFF80003658002E66
:1083B0001BD0BF090121A940154AA80080180068F8
:1083C000009A8003800F114202D0022802D00CE0F4
:1083D00003280AD1032F05D102280AD002212846FA
:1083E00004F068FC39462846B047641C052CCFD3FE
:1083F000F8BD0321F3E70000006300400060004087
:108400007C610040000500501427002000650040FA
:10841000000700508307FF22DB0E9A408907090EF0
:10842000994000280BDA0007000F08388308084835
:108430009B001818C36993430B43C36170478308BB
:1084400004489B001B181868904308431860704745
:1084500000ED00E000E400E010B5064900200860EF
:1084600048608860C860034940390860486005F08A
:10847000FDF910BD40110140FEB50020C043124D72
:1084800002906869019068462E6903F037FB074641
:1084900004F028F80446002F08D002AA0199009899
:1084A00003F04CFB029804F067F806E0029804F031
:1084B00063F8002801D1002C02D0304601F0D0FF33
:1084C00000206871FEBD0000CC20002010B50748D8
:1084D0004068002807D08047002803D000221146BA
:1084E00000F062FC10BD03F057FF10BDF820002023
:1084F00010B503F09FFF002805D00E490C484860D6
:10850000C8130D4988610D48018CC9B201290ED1EB
:10851000818C09070BD1018D0906090F042906D1A9
:10852000808D0006000F02D105490120886010BD32
:10853000DFFF07C000050040006C0040C00F00F0E6
:10854000000600407CB51B4CA0681B4E002500288F
:1085500018D0A56019488069C1B2194800F07DFCA7
:10856000002805D001216A4611700190684607E095
:1085700013488168C068401A012803D16846057015
:1085800071688847E069002803D0E561032004F0A2
:10859000EFFB606A00280BD06562084980390868E3
:1085A000086002216A461170019071686846884728
:1085B0007CBD000000210040AC20002000250040D0
:1085C000442800200FB410B503A9044B044A0298B4
:1085D00000F024F810BC08BC04B0184749BC0100E6
:1085E000F420002030B47446641E2578641CAB422D
:1085F00000D21D46635D5B00E31830BC184702E003
:1086000008C8121F08C1002AFAD17047704700201D
:1086100001E001C1121F002AFBD17047FFB591B0E4
:108620000F460546002606E025280AD0149A13991D
:1086300090476D1C761C28780028F5D1304615B07F
:10864000F0BD002400940121F34A029400E00443A9
:108650006D1C2B780846203B98401042F7D12878B3
:108660002A280ED0022128780246303A092A15D845
:10867000009A0A235A43303A80180C436D1C00902C
:10868000F1E701CF0090002805DA01204003044300
:10869000009840420090022004436D1C28782E2848
:1086A00015D10420044368786D1C2A280AD101CF13
:1086B0006D1C02900BE002990A2251433039401898
:1086C0006D1C02902878014630390929F3D92878A1
:1086D0006C2810D006DC4C281AD068280ED06A28E6
:1086E00017D104E0742813D07A2812D110E00120A9
:1086F000400504430CE00121090501E003210905BF
:108700000C436978814203D10120000524186D1CB7
:108710006D1C287803906E281ED00CDC632831D0A5
:1087200004DC00288AD0582811D1B2E064287BD01C
:1087300069280CD178E073282DD004DC6F2870D024
:10874000702804D1A7E075286CD078286BD0149AD3
:1087500013999047761C62E06002400F022807D010
:1087600003280AD0042838680AD006603F1D56E066
:108770003868F11706604160F8E738680680F5E769
:108780000670F3E73878694608740020487404A836
:108790000390012003E0386803900020C0433F1D90
:1087A00061070FD5002101E00199491C029A01914E
:1087B000914213DA8142F7DB019A0399895C00291F
:1087C000F2D10BE0002101E00199491C01918142A5
:1087D000FADB019A0399895C0029F5D10199009887
:1087E000139A401A00902146149B00F03BF901991E
:1087F0008019461807E0039803990078491C0391F3
:10880000149A139990470198401E0190401CF2D190
:108810002146149B139A009800F014F986196D1CD8
:1088200009E741E033E034E00A200021049005919B
:108830006002410F022905D001CFC21794460329D7
:1088400005D007E0FF1DFF08FF0003CF06E000B2E0
:10885000C2179446042902D140B2C1178C460022A7
:108860006146944506DA0A460021404291418C4611
:108870002D2102E0210504D52B216A461176012124
:1088800003E0E10701D02021F7E7019154E00A203D
:108890000BE0102009E01020049000210420044384
:1088A00008200591029003E0082000210591049022
:1088B0006002410F022905D001CF0022944603290E
:1088C00006D006E0FF1DFF08FF0003CF8C4603E043
:1088D00080B2042900D1C0B20021019121072BD51B
:1088E0000399702906D0049A1021059B4A401A4327
:1088F00005D00EE040216A461176012108E061466C
:10890000014306D030216A4611760399517602213F
:108910000191049A0821059B4A401A430CD16146F3
:10892000014301D1610707D530216A461176012143
:1089300001910299491E02910399582904D037A147
:1089400003910FA90F910DE039A1F9E76146059B4D
:10895000049AFFF746FC039B8C469B5C0F9A521EC1
:108960000F92137061460143F0D10F9807A9081ABE
:1089700020300390600704D501200004844302984E
:1089800001E0012002900399884201DD401A00E0D5
:10899000002041180290019809180098401A009090
:1089A000E00306D42146149B139A009800F05AF86D
:1089B00086190020049008E006A9085C149A13990F
:1089C00090470498401C761C049001998842F3DB80
:1089D000E0030CD52146149B139A009800F042F84E
:1089E000861904E0149A302013999047761C029956
:1089F000481E02900029F5DC08E00F980F990078D6
:108A0000491C0F91149A13999047761C0399481E9C
:108A100003900029F1DCFBE60928010030313233F4
:108A200034353637383961626364656600000000AA
:108A30003031323334353637383941424344454694
:108A400000000000F8B5044600251E4617468804BD
:108A500004D405E039462020B0476D1C641EF9D5CA
:108A60002846F8BDFFB50446002581B01E46C80360
:108A700001D5302700E02027880404D505E03846DA
:108A80000399B0476D1C641EF9D5284605B0F0BDAA
:108A900038B50D4C6078022802D00C49012088605E
:108AA00069460B4800F0B6F9002802D000F016F82D
:108AB00038BD0848802181606A46074B1278DA6128
:108AC00002226270416038BDAC20002000200040CE
:108AD0005428002000230040002500401CB5064912
:108AE0000120C8600549487003206A461070496833
:108AF000684688471CBD000000200040AC200020D4
:108B000004490020487004490122CA604A600349B0
:108B100008607047AC200020002000400025004085
:108B200010B501231B079B8CDCB21B041B0E022A11
:108B300002D00880002010BD012292029A185043F2
:108B4000800A00190880012010BD000008B500202F
:108B5000009049DF01E068464BDF00980028FAD01A
:108B600001490120086008BD00700040F7B582B0DF
:108B700000260546167000781446002805D02846C1
:108B8000039903F0A9FE060008D1A87800281ED09A
:108B90002078039F001D1F2802D90C2005B0F0BDCE
:108BA000684679DF0028F9D121780322481C20701B
:108BB0007A5421781922481C20707A542078C119DF
:108BC0006846008804F0DEFE217840182070E878BE
:108BD0000223002810D02078039A411C21701354DE
:108BE00020780399471C012227700A542078EA78DC
:108BF000471C039927700A546868002815D0002183
:108C0000415620788C460246C01C03991F28C4D8C0
:108C1000501C20708B5422780A23501C20708B54D7
:108C200020786246431C23700A542889002809D002
:108C300028460094062202210830039B04F020FFFE
:108C40000600ABD1288A002809D0284600940722C4
:108C500003211030039B04F013FF06009ED1288BE4
:108C6000002809D028460094152214211830039BAF
:108C700004F006FF060091D1286A002805D022469C
:108C8000039901F03FFC060088D1686A002805D0EE
:108C90002246039903F0EEFD060084D12C20405DAE
:108CA000002806D022462846039904F0B8FB0600A7
:108CB000C7D1304672E710B501220221002001F031
:108CC000F3F8002801D0072812D107220221012041
:108CD00001F0EAF8002801D0072809D100210A2272
:108CE000084601F0E1F8002801D0072800D1002053
:108CF00010BD0000044842680121C9050B4693439A
:108D000083600A40C26070470005005070B50024BF
:108D1000064D06E06968E000085C012103F0A8FE4A
:108D2000641C28788442F5D3002070BDB420002054
:108D3000F8B515460C460646052A01D20720F8BDAF
:108D400003F064FF002803D103F036FF0028F6D1BA
:108D5000114900204E600C7008618D6048610F4D14
:108D60000DE0E00029688019009181786A46517011
:108D700000780B4A694603F0CBFE0028DFD120467D
:108D8000641EE4B20028ECD10348064A00210C30EE
:108D900000F09AF8F8BD0000B420002044DC010087
:108DA000BDC20100DDA70100BFF34F8F0349024898
:108DB000C860BFF34F8FFEE70400FA0500ED00E046
:108DC000F8B5074606480D4604681646097805A01A
:108DD000FFF7F8FB324629463846A047F8BD0000A9
:108DE000F02600205B444D5D3A204E6F7469667931
:108DF000696E67206170706C69636174696F6E2061
:108E00006F66206576656E74203078253032580D97
:108E10000A0000008268C36893420AD0826883888F
:108E20001A4003689A5C0A708168491C81600020BE
:108E3000704705207047002906D0002A02D0531E33
:108E4000134203D0092070470E20704701608380D1
:108E500000218160C160084670478268C3689B1A20
:108E60008288934208D8C36813400268D154C1680D
:108E7000491CC160002070470420704738B50C467B
:108E8000A2680C235A43064B09789D58054A126A7A
:108E900000920246204608302369A84738BD0000EA
:108EA0002C2800208820002010B5064914230A78B9
:108EB0005A435118091DFFF7E1FF042004F008FB95
:108EC00010BD00006027002070B5114CA568002D72
:108ED00006D0002A06D0002804D00023247809E018
:108EE000082070BD072070BD24265E43AE5D002EB5
:108EF00004D05B1CA342F7DB042070BD24240126B0
:108F00005C432E5564196170A2610360002070BD3E
:108F1000CC200020FFB59807002481B01E461546DE
:108F20000F4600280BD1002E09D004F007FA224981
:108F30000A9888610F70324600208E6008E0072092
:108F400005B0F0BD24234343D4549B181C75401C2A
:108F5000B842F7DB24204743BB19032048700F4673
:108F60001846CB6019461830002218232E465E435F
:108F7000D3005B181C705C709D7058603018521CD8
:108F8000032AF5DB0020C0433861BC70FC7001246B
:108F90000A482405046003211420FFF73BFA08481F
:108FA0000460084C0198A06003211120FFF732FAF9
:108FB000606878610020C3E7CC20002080E200E0F8
:108FC00000E100E000150140FEB504461D481746CB
:108FD00082680D46002A0CD001788C4201D2052D02
:108FE00001D20720FEBD214624235943535C012BA7
:108FF00001D00820FEBD8818407801281DD0002629
:1090000004F002FDC0000F490190C968401869468C
:1090100004F024FD002812D0012101700A494460A7
:1090200049680830E2C007490198C96841180098AA
:10903000487004F0A9FB0020FEBD2E46E0E70420A6
:10904000FEBD0000CC20002000150140F8B5144DF5
:109050000446A868002809D029788C4201D307204B
:10906000F8BD24216143405C012801D00820F8BDEF
:1090700004F0CAFCC600E8686946301804F0EEFC4B
:1090800000280AD0022101704460E8683118009875
:10909000487004F079FB0020F8BD0420F8BD000002
:1090A000CC20002070B506460D4608A0FFF78AFACE
:1090B000002404E0315D06A0FFF784FA641CAC4292
:1090C000F8D302A0FFF77EFA70BD00000D0A000081
:1090D000307825303258200000B50D4A89B007CAD3
:1090E00005AB07C30020694608840A4801900120A7
:1090F000029009480390FF200130049008A80090D6
:109100000323064A01A905A800F00AF809B000BD2A
:1091100048DC0100F0200020642800206DD9010007
:10912000FFB5584F83B000260D4604467E707A6026
:1091300000292AD0A888296882B25348FFF77BFE0D
:10914000002823D1A889A96882B24F481030FFF7C0
:1091500072FE00281AD160784C4903228000401822
:10916000026022783046920051180E60484D6178B6
:10917000E96021786961A1686962454E617940368C
:10918000002905D00E21F16203E0072007B0F0BDF1
:10919000F0622379022B17D03E493F4A012B45D07C
:1091A00004232B608860C861F06A40084000F062C8
:1091B000581FA860286101209060106078700C989A
:1091C000008800283FD043E003F020FD002803D1B1
:1091D00003F0F2FC0028D9D13048694600680090BD
:1091E000A07803F01BFD0028D0D1401E2861A07894
:1091F000A860F06A01210843F0622848284A4068C4
:109200000190E07801A903F083FC0028BED1E0784A
:10921000012103F02DFCE07803F0C4FC002801D00C
:10922000002000E0012003F0A3FDC8E704232B6029
:109230008860C861F16A01200143F162E178296127
:10924000A178A960B8E70C9938780880401C38707C
:1092500000211448C9438160A1218900416012495D
:1092600004200860114B06991A68FF24240489071A
:10927000090EA24309040A431A600D490860002040
:1092800084E70000AC2000204428002000070050A4
:109290000025004000210040002000403CDC01008F
:1092A00009C301000023004080E200E000E400E088
:1092B00000E100E010B501460448FFF7CEFD04468A
:1092C000022003F055FD204610BD00005428002068
:1092D00070B50C4692B000216A46117007251171D5
:1092E000002809D0C17849070CD502A9FFF73EFC38
:1092F000002808D102AE00E00026002C0ED0E07855
:10930000002802D0284612B070BD01AA0AA9204642
:10931000FFF72CFC0028F6D10AAA00E000226846DC
:1093200003790178304672DFEDE7000070B50D4635
:1093300004991646040042D0002E40D04248002234
:109340004271C3600161242231464048FEF718FF94
:1093500000F032F93D4934310846103801602031BF
:10936000816030215438FEF724FF384821783038A6
:109370000170A1788170E178C17061784170626993
:10938000216942610161E268A168C26081600146B1
:10939000E369A269CB618A61616A002919D001463B
:1093A000A4310246B03241628A60636A1B880B8036
:1093B000616A436A898899800021436A06E00E2029
:1093C00070BD666AB668765C5654491C9E888E42AB
:1093D000F7D8A16A00291CD01C4AAC3211460C39BE
:1093E0008A608162A36A9B888B80A16A836A0988EC
:1093F00019800021836A04E0A66AB668765C565438
:10940000491C9E888E42F7D82C210A5D0F491039DD
:109410000A73216A002909D00B4914310162226ABA
:1094200052884A80216A026A09881180616800298D
:1094300004D00549891D416061684160034829469F
:109440003038FFF745FF70BD38200020DC240020B5
:1094500010B50288214C102A19D00021112A19D0E8
:10946000192A16D18079002813D1607901281AD0E1
:10947000022822D0032829D004280AD1217118A05B
:10948000FFF7A0F8E168002903D0207913E0808875
:10949000208110BD6170808822899042F9D10846F0
:1094A0002171E16807E01EA0FFF78CF8022008E0B8
:1094B00021690029EDD0884710BD25A0FFF782F86B
:1094C000032000F0A1F80028F2D110BD0320207184
:1094D0002C48FFF777F80420F3E70000382000203D
:1094E0005B4144565D3A2054696D6564206F757424
:1094F0002066726F6D20736C6F7720616476657281
:10950000746973696E672C2073746F7070696E670D
:10951000206164766572746973696E672E0D0A0046
:109520005B4144565D3A2054696D6564206F7574E3
:109530002066726F6D206469726563746564206172
:1095400064766572746973696E672E0D0A00000097
:109550005B4144565D3A2054696D6564206F7574B3
:109560002066726F6D206469726563746564207330
:109570006C6F77206164766572746973696E672EAB
:109580000D0A000054DC010010B5022801D00328A8
:109590000ED1084C207800280AD000202070607975
:1095A00000F032F8002803D02169002900D0884754
:1095B00010BD00003820002010B507210148FEF73B
:1095C000F8FD10BD5020002010B50D48007801288E
:1095D00014D10C4C6078002810D16079002802D09A
:1095E00074DF00280BD101206070607900F00CF866
:1095F000002803D02169002900D08847002010BD31
:10960000DC24002038200020F0B57C4C87B060714D
:10961000002606A8069603F04DFC0127082806D070
:1096200000286FD10698002802D02770E3E0069644
:10963000FFF7C2FF724D6878002802D060790128D8
:1096400005D0A87800280AD06079022807D1E168FF
:10965000002903D0E7700820884700E0E6706079B1
:10966000012808D16878002809D06448193003F02F
:10967000C3FB002803D06079022802D00CE002204E
:109680006071A878002805D05C48193003F0B4FB5D
:10969000002801D103206071287B002804D1607963
:1096A000032801D104206071287E002804D160794C
:1096B000042801D166712671E16800290AD0607919
:1096C000032801D0042805D12878002802D060782A
:1096D000002818D0A67018216846FEF76AFD684673
:1096E0000670019606720396607901280FD0022851
:1096F00019D0434E24363746543F032822D004283D
:109700006DD145E078E0A77007208847E3E73DA0EA
:10971000FEF758FF394818300190684607704682B6
:10972000068227715BE037A0FEF74CFF3348183004
:1097300001906846077029894182A9880182022028
:1097400020714CE0A88A69464882288A08822C4801
:10975000243004F0F9F9002805D02878002802D038
:109760006078002803D00320207130A035E002206B
:109770006946087204200396F870214800213038A9
:10978000FFF7A6FD002837D10520207131A024E085
:10979000A88B69460882288C48821948243004F036
:1097A000D3F9002805D02878002802D06078002856
:1097B00003D00420207135A00FE002206946087212
:1097C00004200396F8700E4800213038FFF780FD22
:1097D000002811D10620207136A0FEF7F3FE607933
:1097E000002803D0684673DF002805D1E16800290E
:1097F00001D020798847002007B0F0BD3820002034
:10980000DC2400205B4144565D3A2053746172743D
:10981000696E67206469726563742061647665723D
:10982000746973656D656E742E0D0A005B41445654
:109830005D3A205374617274696E67206661737457
:10984000206164766572746973656D656E742E0D42
:109850000A0000005B4144565D3A20537461727403
:10986000696E6720666173742061647665727469DD
:1098700073656D656E7420776974682077686974A4
:10988000656C6973742E0D0A000000005B4144563C
:109890005D3A205374617274696E6720736C6F77E0
:1098A000206164766572746973656D656E742E0DE2
:1098B0000A0000005B4144565D3A205374617274A3
:1098C000696E6720736C6F77206164766572746966
:1098D00073656D656E742077697468207768697444
:1098E000656C6973742E0D0A0000000070B50546A2
:1098F00001461C220F48FEF743FC0F4C0026267041
:109900002968002907D00822A018FEF739FC204654
:1099100008307ADF02E0084808307BDF002808D1F1
:10992000401E608004486670044A0021001DFFF755
:10993000CBFA70BDA825002058200020A5D9010031
:10994000F8B5224C028800271F4DE689102A16D050
:1099500029464968112A21D0122A2DD0502A1CD11B
:10996000C288801DB24218D1028B022A15D1C27E54
:10997000837E10021843C007C00F0CD112E081880B
:10998000698001461048082216311030FEF7F8FBB6
:109990006F70002E01D100F0FDFDF8BD0020C04326
:1099A00068806F700846FFF751FB0028F5D0A16969
:1099B0000029F2D08847F8BD811D034808221030E5
:1099C000FEF7DEFBE7E7000058200020A825002076
:1099D00070B5044601F0E4F92046FFF7B1FF2146D7
:1099E0000F4800F055F8204600F096F920880D4DFC
:1099F000102802D011280ED10AE0072000F078FAD2
:109A0000002803D000221146FFF7CEF9A08801E01C
:109A10000020C04368802046FFF71AFD70BD00009B
:109A2000842400200020002030B5184B0D4604008F
:109A30000FCB85B003936B4607C324D0002D22D0F3
:109A40000020C043A0822868A0610020A0752146A4
:109A5000684663DF002814D12178684681740121AB
:109A60000182A21C04A90120A0DF002809D12946F7
:109A7000204603F085FC002803D12946204603F048
:109A800035FF05B030BD0E20FBE7000004DC01000F
:109A900000281ED000291CD00A88102A14D0112AB0
:109AA00014D0502A15D1CA88038A891D9A4202D13E
:109AB0000B8B022B0ED083889A420AD18369002B2C
:109AC00007D00A8B1A311847898801E00021C94361
:109AD00081827047CA7E8B7E11021943C907C90F64
:109AE00000D001218175704707B584B000280DD0E2
:109AF000828A114B9A420BD0827D002A08D06A4696
:109B0000128B142A06D9072007B000BD0E20FBE7F0
:109B10000820F9E7002200920192029203928289C2
:109B20006B461A80039106A9029101219970808ADF
:109B30006946A6DFE8E70000FFFF00001CB5002330
:109B400048221549082003F0F7FC002803D0002222
:109B50001146FFF729F90020009001900120694685
:109B60000870684660DF002803D000221146FFF726
:109B70001BF90A4803F0D6FC002803D00022114646
:109B8000FFF712F9064803F0EFFC002803D000228B
:109B90001146FFF709F91CBD3C240020D1990100B2
:109BA0005DD701007FB50446817802AA204803F002
:109BB00095F9030005D0A27861781E48FEF702FDF2
:109BC0007FBD1C200090019061781B4D48434319D4
:109BD0001A48039AFEF7F6FC1C2160780B464843AE
:109BE0000A46401902A903F03FFA020003D0617847
:109BF00013A0FEF7E7FC3820009061780E4A24207D
:109C000048431C32821824231C48FEF7DBFC0A4818
:109C10001B494C30807A80000A58214602A89047A0
:109C20000200CDD0617817A0FEF7CCFC7FBD00000C
:109C300080200020E4DC0100A4260020FCDD0100DF
:109C40005B444D5D3A5B253032585D3A2046616990
:109C50006C656420746F206C6F616420426F6E6469
:109C600020696E666F726D6174696F6E2C2072650B
:109C700061736F6E20253038580D0A0058DE0100E0
:109C8000E4DB01005B444D5D3A5B253032585D3AC0
:109C9000204661696C656420746F206C6F6164207C
:109CA0007365727669636520696E666F726D617443
:109CB000696F6E2C20726561736F6E202530385885
:109CC0000D0A00007CB5134E00250C4630600029BB
:109CD00018D06946002000F0B3F8002819D101A976
:109CE000012000F0ADF8002813D16846017900206A
:109CF000002901D0022004E069460978002900D03B
:109D00000B2020707068002802D1FEF7D4FF0546B2
:109D100028467CBD2C20002010B51C4C01886068B2
:109D200010290DD011290AD1401E606007D1FEF71D
:109D3000C2FF002803D02168002900D0884710BD49
:109D400000281ED100210122084600F0ADF80028AD
:109D500001D0072811D107220221012000F0A4F828
:109D6000002801D0072808D104220221002000F099
:109D70009BF8002805D0072803D02168002900D0CF
:109D800088476068401C606010BD00002C200020E7
:109D900010B5032000F002FA002801D0062800D1F7
:109DA000002010BDF8B507460024224802E0641CDC
:109DB000042C19D2A2008258BA42F8D1042C13D232
:109DC0001D4E1E4DF069002928D001290DD0022911
:109DD0000AD16000201840194578002D04D0F168A0
:109DE000002901D028468847F8BD6100621829463D
:109DF000AD5C511800914978002909D071680A2298
:109E000051430D4A521CFFF7DFF8002800D177704C
:109E100000988178084810300155DEE7FFF716F901
:109E200005486100611810304919005D8D78A8421D
:109E3000D3D0F8BDA0DB01000C200020A02400201E
:109E400004280CD2074A1269074B80001B5C0120D2
:109E50009840904300D001200870002070470020F7
:109E6000FAE7000000050050A0DB010010B504284F
:109E700006D0072810D00A2801D103F00EFB10BD30
:109E800008481321408876DF08E00028F7D0002238
:109E90001146FEF789FF10BDFFF796FB0828F4D1A5
:109EA00010BD00000020002070B50023042811D24E
:109EB000440004190D4D012A02D101290DD00022C0
:109EC00046008019094E801900290CD0012906D0BE
:109ED000022906D00723184670BD0D30C2B22A559C
:109EE000F9E74270F7E78270F5E70000A024002050
:109EF00010B5054A0146127A0020D20702D0084662
:109F000000F054F810BD00000C20002070B50E4683
:109F1000204905464E608D600020CA60A9071ED505
:109F20000024012211462046FFF7BEFF641C042CCA
:109F300002D20028F5D012E0002810D172080421C6
:109F40001548FEF7F5FE002809D1FEF7DFFE0028D0
:109F500005D11048114A00211C30FEF7B5FFE90772
:109F600006D00F220E4952058A600023CB608A6119
:109F700000280DD107480B4A00211430FEF7A4FF3A
:109F8000002805D10348084A01211830FEF79CFF3C
:109F900070BD00000C200020B0DB0100D9A1010041
:109FA00000050050CDC40100F58C0100FEB57849D4
:109FB00006464F684B690093BB00FB180020012246
:109FC000019352050546734C3300FEF70BFB180D49
:109FD00013133749596C828E858E97A1A5A5A5A527
:109FE000A5C3C8CDD4DADA120B225205A260E5600F
:109FF0000D70FEBD05208005A060E56060680F2340
:10A000005B055840800209D5A260E560022E02D1AE
:10A01000E120C0000AE07D20400107E0E260A56089
:10A02000022E01D1C82001E0FF2091300E70642182
:10A03000FEF77CF878430022014646E005208005C3
:10A04000A060E56060680F235B055840800204D57E
:10A05000A260E56019204001E8E7E260A560E1E761
:10A0600005208005A060E56060680F235B0558400F
:10A07000800202D5A260E560CDE7E260A560D3E78B
:10A0800005208005A060E56060680F235B055840EF
:10A09000800202D5A260E56001E0E260A5600E707A
:10A0A0007900002211E005208005A060E56060686D
:10A0B0000F235B055840800202D5A260E56001E0F5
:10A0C000E260A5600E70002239460098FEF77CFF22
:10A0D000FEBD05239B0544E06068012189050A4611
:10A0E0008243A2600840E06010E0616801208005C2
:10A0F00002468A43A2600140E160E4E76168012012
:10A10000800502468A43A2600140E1600199C8E7E8
:10A110000F214905E1601BE00F468869FEF796FFB5
:10A1200011218A1B1C4E01D0002802D0A660E560D8
:10A13000FEBD012A0BD91046C82148436421FDF712
:10A14000F5FF796800224143B869FEF73DFFE660FC
:10A15000A560FEBD0F225205A260E56015E0072351
:10A160009B05A360E5600EE00D225205A260E5604C
:10A170000122920507E00322D205A260E560921059
:10A1800001E00F225205E260A5600E70FEBD0000E6
:10A190000C2000200005005000008000F0B50021D8
:10A1A0000B4C0C4D03273F048A00A258920056190D
:10A1B000326801238B40034000D00323BA431B04C1
:10A1C00013433360491C0429EED30020F0BD000086
:10A1D000A0DB01000007005010B500780221FFF756
:10A1E000E1FD10BD0022D243830004490428CA5077
:10A1F00002D3081840300270704700001427002076
:10A20000F0B50025ED43002A02D00023042601E02A
:10A21000042309260B4C04E09F00E7597F1C04D05F
:10A220005B1CB342F8D32846F0BD26185DB2203639
:10A2300035719E00A151002AF5D1E1184031087016
:10A24000F1E70000142700200249091824200856CD
:10A250007047000014270020F8B53E48142201780A
:10A2600051430C18E0680C2148433A492769CC3126
:10A270004018058941890091241D466802F0C0FEFE
:10A2800001463846FDF752FF002932D000200099E0
:10A29000A2884D436188AE198918CD1900222E4934
:10A2A00000280A6109D002F0ABFE6188884222D002
:10A2B000B54202D1A08800281DD0A06803281AD07A
:10A2C00002F09EFEA188CA1901461046FDF72EFF36
:10A2D000214C8808E06002F093FE01462846FDF715
:10A2E00025FF002911D00020B5422FD000280ED024
:10A2F0002CE00120CBE702F083FE01463846FDF753
:10A3000015FF15494861032021E00120ECE7ADB2BB
:10A31000B7B202F075FE01463846FDF707FF064664
:10A3200002F06EFE01462846FDF700FF864201D18D
:10A33000781B09E002F064FE064602F061FE014669
:10A340002846FDF7F3FE701A80082061022003F012
:10A35000BFF8F8BD602700208820002010B507480E
:10A3600014220178514308180079042802D000F023
:10A3700059F810BD012003F0ABF810BD6027002094
:10A3800010B50B481422017851430818094AC188B6
:10A3900011620079012806D0032801D0042801D1D8
:10A3A000FFF75AFF10BD012003F092F810BD000026
:10A3B000602700208820002014225043054A0021F5
:10A3C00080180171C18002220161C2604161018176
:10A3D0007047000060270020F8B5104C069E657895
:10A3E0000A2D19D027787D190A2D00D30A3D14278C
:10A3F0007D432D1928716A6103C92961E860EB80EA
:10A400002E816078401C607005480078002801D1DA
:10A41000FFF7B6FF0020F8BD0420F8BD602700203C
:10A420008820002010B50D4C1421207848430119D4
:10A430000020091DFEF722FD2078FFF7BDFF6078A0
:10A44000401E60702078401CC0B220700A2801D1E4
:10A4500000202070002003F03BF810BD6027002092
:10A46000F8B5224801694A1C3DD024225143826834
:10A4700089184E681E494C6847690079E11B0D0236
:10A480002D0AED1C002814D101201A4A0004506046
:10A49000184A403A5060184940000860174908605F
:10A4A0001749012008602F20FDF714FE0F490120F5
:10A4B0000871B54200D23546E81900020C49000A7D
:10A4C000403108600A494968001B091B0902090A52
:10A4D0000002000AC91C814204D901200649400437
:10A4E00080390860F8BD02F029FFF8BDCC200020BB
:10A4F000001501404013014080E200E000E100E06F
:10A5000000100140F8B50D4611780646881D144626
:10A510001F2801D90C20F8BD33880720062BFAD359
:10A520001927FF01BB4202D9164A9342F3D1728820
:10A53000062AF0D3BA4202D9124FBA42EBD1114FD8
:10A54000BB4203D0BA4201D09342E4D8481C052252
:10A5500020706A5420781222411C21702A542078DD
:10A560004119308803F00EFA21784018C0B22070EB
:10A570004119708803F006FA2178401820700020F5
:10A58000F8BD0000FFFF000010B500221146FEF7E5
:10A590000BFC10BDF8B5164801F03EFF144D002627
:10A5A000103D144C002807D0616900291BD0012000
:10A5B0006A461070684615E02878002805D0616961
:10A5C000002910D0684606700CE0687800280CD08E
:10A5D000A16800226868FEF7F7FC002803D0A16993
:10A5E000002900D088472E70F8BD6168F1E70000AF
:10A5F00068200020A825002070B504460DA0FDF7B6
:10A60000E1FF22460121184800F062F8050005D05C
:10A6100016A0FDF7D7FF0425284670BD1FA02168AE
:10A62000FDF7D0FF20680C225043284A02218018F1
:10A630008172F1E75B444D5D3A2052657175657337
:10A640007420746F20616C6C6F636174696F6E202D
:10A65000636F6E6E656374696F6E20696E7374618B
:10A660006E63650D0A000000FFFF00005B444D5D56
:10A670003A204E6F206672656520636F6E6E65636B
:10A6800074696F6E20696E7374616E6365732061A7
:10A690007661696C61626C650D0A00005B444D5D1A
:10A6A0003A5B253032585D3A20436F6E6E656374B5
:10A6B000696F6E20496E7374616E636520416C6CC6
:10A6C0006F63617465642E0D0A000000E4260020AB
:10A6D00070B5094B04469E7A082000250E4207D02B
:10A6E0000648844202D01889A04202D10020156099
:10A6F00070BD052070BD0000E4260020FFFF0000B3
:10A7000010B50446014608A0FDF75CFF0C20444349
:10A710001248012120188172891E0181FF21C17216
:10A720000721FDF746FD10BD5B444D5D3A20496EA3
:10A73000697469616C697A696E6720436F6E6E65D2
:10A740006374696F6E20496E7374616E6365203047
:10A7500078253038582E0D0A00000000E42600202D
:10A7600010B5134C207900071FD46069401C60614C
:10A77000E068002801D0042004E001F07FFE0028FA
:10A7800003D0022002F0E0FF10BD2069002809D0AC
:10A790006068C10701D00320F4E70121084360602D
:10A7A0000020EFE7FFF7DAFD10BD02F0C1FF10BD9A
:10A7B0008820002010B5084841680A0708D48A0795
:10A7C00002D5012211434160022002F0BDFF10BDFD
:10A7D00002F0AEFF10BD000088200020F8B5002672
:10A7E0000124154D23E06968F000471838782146A8
:10A7F0006A698140114218D08A436A6102F0D2F935
:10A800003A7821462B69914019400346934099427A
:10A810000BD17978012901D0012100E000217B686A
:10A820004140002B01D010469847761CF6B228789C
:10A830008642D8D3F8BD0000B4200020FEB50446FF
:10A840000F4635A0FDF7BEFEA1786A463B4802F0F0
:10A8500045FB05005AD162780C2039495043401815
:10A86000807A400629D4022F27D0A178012F2AD040
:10A870003448FDF7A7FE344EA0781C2148433349E5
:10A88000002341181C226846B047050020D0022F43
:10A890003AD020780C21484329490C314018807A5D
:10A8A0002B4980000A58214668469047050031D060
:10A8B000014628A0FDF786FE28E0A17833A0FDF729
:10A8C00081FE424ED8E742A0FDF77CFE4F4ED3E713
:10A8D000022F1FD061780C2041431948BF2208186D
:10A8E000817A1140817260781C21484314494039B3
:10A8F00041181C231A466846B0470200C9D0A17807
:10A9000043A0FDF75FFEC4E7002D03D0294650A009
:10A91000FDF758FEFEBD00005B444D5D3A202D2D35
:10A920003E206465766963655F636F6E74657874F5
:10A930005F73746F72650D0A0000000080200020B4
:10A94000E4260020F0DE0100B5D60100E02500205D
:10A95000D4DB01005B444D5D3A204661696C65645F
:10A9600020746F2073746F726520736572766963EB
:10A970006520636F6E746578742C20726561736FE7
:10A980006E20253038580D0A000000005B444D5DF4
:10A990003A5B444920253032585D3A5B43492025D3
:10A9A0003032585D3A202D3E205570646174696ED6
:10A9B0006720626F6E64696E6720696E666F726D84
:10A9C0006174696F6E2E0D0A00000000A9D20100AB
:10A9D0005B444D5D3A5B444920253032585D3A5B1B
:10A9E000434920253032585D3A202D3E2053746F64
:10A9F00072696E6720626F6E64696E6720696E6649
:10AA00006F726D6174696F6E2E0D0A00C9D10100FD
:10AA10005B444D5D3A5B3078253032585D3A466193
:10AA2000696C656420746F2073746F726520626F47
:10AA30006E6420696E666F726D6174696F6E2C2032
:10AA4000726561736F6E203078253038580D0A00BA
:10AA50005B444D5D3A204661696C656420746F20EB
:10AA600073746F72652064657669636520636F6EC9
:10AA7000746578742C20726561736F6E2025303890
:10AA8000580D0A00F3B51E4F1E4E83B000241C2043
:10AA9000604385192A7C21461BA0FDF793FD287D84
:10AAA000AA7D697D6B4607C3EB7CAA7C697C20A0EC
:10AAB000FDF788FDA87EFF2805D0641C072CE6D38F
:10AAC000384605B0F0BD0498007802280AD01C2052
:10AAD00060438019FD218176072210300499FDF72B
:10AAE0004FFB04E01C2060438019FE21817603980F
:10AAF0000027047021461EA0FDF764FDE0E700007A
:10AB000043800000E02500205B444D5D3A5B4449F2
:10AB1000203078253032585D3A2044657669636587
:10AB20002074797065203078253032582E0D0A0057
:10AB30005B444D5D3A2044657669636520416464F9
:10AB40007220307825303258203078253032582025
:10AB500030782530325820307825303258203078FF
:10AB600025303258203078253032582E0D0A00001A
:10AB70005B444D5D3A20416C6C6F63617465642089
:10AB800064657669636520696E7374616E636520C0
:10AB90003078253032580D0A00000000F7B505273F
:10ABA00084B0054600280AD02879AA7969796B46CD
:10ABB00007C3EB78AA7869781A48FDF703FD0026E9
:10ABC0001C203146414318480C18227C314617A0FE
:10ABD000FDF7F8FC207DA27D617D6B4607C3E37C19
:10ABE000A27C617C1BA0FDF7EDFC002D08D0204667
:10ABF000103007222946FDF7E7FA002804D00BE0C1
:10AC0000218B0698814207D1314622A0FDF7DAFC5C
:10AC100005980027066002E0761C072ED0D3384640
:10AC200007B0F0BD9CDC0100E02500205B444D5DD9
:10AC30003A5B4449203078253032585D3A204465EB
:10AC400076696365207479706520307825303258D4
:10AC50002E0D0A005B444D5D3A20446576696365BC
:10AC600020416464722030782530325820307825B5
:10AC70003032582030782530325820307825303224
:10AC80005820307825303258203078253032582EF0
:10AC90000D0A00005B444D5D3A20466F756E6420DE
:10ACA00064657669636520617420696E7374616E92
:10ACB0006365203078253032580D0A007CB5054692
:10ACC00081B26A46094802F009F904000CD129460C
:10ACD00007A0FDF777FC7421684602F02BF9040009
:10ACE00002D1284602F094F820467CBD8020002046
:10ACF0005B444D5D3A5B4449203078253032585DE5
:10AD00003A2046726565696E6720496E7374616E9C
:10AD100063652E0D0A00000010B5100003D000225C
:10AD20001146FEF741F8002010BD00001FB569462E
:10AD3000087302F06BF9002803D000221146FEF7D9
:10AD400033F803A800F0D4FB002803D000221146FA
:10AD5000FEF72AF801A805210130FDF72AFA694615
:10AD6000487901221043E1210840DF210C300840DE
:10AD700069464871072088711020C8710648009004
:10AD80000A71064800F04AFE002803D0002211464E
:10AD9000FEF70AF81FBD000019AD010000200020D9
:10ADA000F0B5044691B000200790FF25FE480695B7
:10ADB0000078002850D0FD4E306800284CD002A802
:10ADC00000F088FB002803D000221146FDF7ECFFBD
:10ADD000201D04902A2069468882FF20002788725F
:10ADE0000F720197F14D20880C3D10280ED0A088DD
:10ADF00001AA0221FFF76CFC002807D101980C2161
:10AE000041434919CA7A69468A72487220881728CC
:10AE100070D012DC102821D0112856D013286AD007
:10AE2000142819D1E2A0FDF7CDFB01980C2148436D
:10AE30004019C07AFF2875D091E0182870D01C28DE
:10AE40006FD0522808D1E4A0FDF7BCFBB07A810096
:10AE5000EC48415802A8884711B0F0BD01A8FFF79F
:10AE6000CBFB0028F8D1112069460873019848727D
:10AE70000C225043A18840190181022181720722CE
:10AE8000A11DFDF77DF9207DC10707D04108C64807
:10AE90000830405CFF2808D0069006E0DA4A06A990
:10AEA000A01DFFF77BFE00280ED101990C22514313
:10AEB00049190698C8728B7A082213438B72694627
:10AEC000887202A8FEF76EFE7EE2A179CFA0FDF7A0
:10AED00079FB01980C2148434119887AFD221040E2
:10AEE0008872010708D5C0090FD0002102A8FFF71A
:10AEF000A5FC0AE0C0E051E06846807AFF2804D053
:10AF000001F086FFFF206946887201980C225043A9
:10AF100010214019817212206946087354E201E041
:10AF200029E16DE2E28906A90020FFF737FE00283B
:10AF30000ED101980C22504340190699C172827AB1
:10AF400008231A4382726846817202A8FEF72AFE1D
:10AF500001980C2148434019C07AFF2809D0019874
:10AF60001C21484391494C39401811210790FEF7A4
:10AF700099F801981C214843AD494218A088002344
:10AF8000079982DF030000D166E701990C2048434E
:10AF90004019C27AA748FDF715FB5DE7A6A0FDF7AB
:10AFA00011FB132069460873019B0C20584341197B
:10AFB000887A042210438872C87AFF2842D016206B
:10AFC000694608732420434378481A2130381818FA
:10AFD0000830FDF7EEF801980C2148434019817ABA
:10AFE000402211438172A079C007C00F0090607A9F
:10AFF0004107CB0FA17A8907CA0FC107C90F99A0D2
:10B00000FDF7E0FA00200B9001990C224A435219F7
:10B01000D27A1C235A43864B0D90D2180C921C22D4
:10B0200051431A46C4328918089109900A90321D7A
:10B03000A08808AB00217FDF010037D093A0FDF787
:10B04000C1FA09E706A8FFF71DFD0090002805D00A
:10B0500001469EA0FDF7B6FA009FC4E7AAA0069A93
:10B060000199FDF7AFFA69460698887201990C229A
:10B0700051434919C872B6E7A179ADA0FDF7A2FA0C
:10B08000707A0C214008400070720198FB224843FE
:10B090004019817A1140817214216A461173A17995
:10B0A000002904D0C07AFFF709FEA7798CE10621B8
:10B0B000A01DFDF7F7FF01981C2148433B494C397F
:10B0C00040181C21FDF7EEFFE0794007EED56846F9
:10B0D000827AFF2AEAD001980C230146584340198E
:10B0E000837A082633438372E37A9B0708D51C23AF
:10B0F00014465C434E4BE3189C7E640864009C76C7
:10B10000C07AFF2836D080A0FDF75CFA01980C21A8
:10B1100041436A5C022A18D06846807A1C22504358
:10B12000434C4919001907221030FDF729F86846E9
:10B13000807A1C2148430019817EFD2211408176CE
:10B1400007211030FDF7AEFF10E01C2148431749DE
:10B150004C394018428A6846817A1C204143344861
:10B1600008180283817E490849008176012102A8DE
:10B17000FFF764FB28E1A07901070209090F78486D
:10B18000FDF720FAA079010901290BD10007000F72
:10B19000012807D101980C2141434919897A0907EF
:10B1A00000D5DFE0F6E0000070200020F02600204F
:10B1B0005B444D5D3A203E3E20424C455F47415046
:10B1C0005F4556545F5345435F494E464F5F524576
:10B1D00051554553540D0A005B444D5D3A203E3EA7
:10B1E00020424C455F47415454535F4556545F538A
:10B1F00059535F415454525F4D495353494E470D83
:10B200000A000000F4DB0100FFFF00005B444D5D1D
:10B210003A20446973636F6E6E6563742052656192
:10B22000736F6E203078253034580D0A000000000E
:10B23000E0250020C0DF01005B444D5D3A203E3E2A
:10B2400020424C455F4741505F4556545F5345434C
:10B250005F504152414D535F524551554553540D36
:10B260000A0000005B444D5D3A20307825303258AA
:10B270002C203078253032582C2030782530325828
:10B280002C203078253032580D0A00005B444D5D8B
:10B290003A20536563757269747920706172616DCB
:10B2A00065746572207265706C7920726571756560
:10B2B0007374206661696C65642C20726561736FBC
:10B2C0006E203078253038582E0D0A005B444D5DD5
:10B2D0003A20536563757269747920706172616D8B
:10B2E0006574657220726571756573742066616935
:10B2F0006C65642C20726561736F6E203078253028
:10B3000038582E0D0A0000005B444D5D3A5B4349FE
:10B31000203078253032585D3A5B4449203078251A
:10B320003032585D3A20426F6E646564210D0A0028
:10B330005B444D5D3A203E3E20424C455F474150C4
:10B340005F4556545F415554485F535441545553DB
:10B350002C2073746174757320253038580D0A00E1
:10B3600034DF010024214843284940181A210830BD
:10B37000FCF71FFF16206946087301980C2148430B
:10B380004019817A602211438172707A0221084348
:10B39000707218E001980C2148434019817A80228C
:10B3A00011438172152069460873B07A81001848EC
:10B3B000415802A88847002805D06846827A417A19
:10B3C00014A0FDF7FFF800273A4603A902A8FDF7ED
:10B3D000F7FC6846007B122800D03DE51DA00199CE
:10B3E000FDF7F0F801990C2048434019807A0128B4
:10B3F000F3D024A0FDF7E6F80198FFF781F92BE5DB
:10B400002BA0FDF7DFF8132086E50000C026002002
:10B41000F4DB01005B444D5D3A5B43492030782505
:10B420003032585D3A5B4449203078253032585DDF
:10B430003A204661696C656420746F206170706C9D
:10B4400079207365727669636520636F6E746578C1
:10B45000740D0A005B444D5D3A5B4349203078250A
:10B460003032585D3A2046726565696E6720636FB9
:10B470006E6E656374696F6E20696E7374616E635E
:10B48000650D0A005B444D5D3A5B253032585D3AEC
:10B4900020467265656420636F6E6E656374696FC4
:10B4A0006E20696E7374616E63652E0D0A00000074
:10B4B0005B444D5D3A203E3E20424C455F47415043
:10B4C0005F4556545F5345435F524551554553546C
:10B4D0000D0A0000002806D0FF2101704170817024
:10B4E000C170002070470148704700000E800000C6
:10B4F000F0B5054687B048A0FDF764F8002D32D0BE
:10B5000000214AA0FDF75EF8554800270760477202
:10B5100087723846FFF7F4F8514824213038FCF799
:10B5200048FE0024FF26204601F072FC4D480655D7
:10B53000641C072CF7D374216846018207214182DD
:10B54000494848490390083103A801F0E3FD04008D
:10B550000BD0014645A0FDF735F854A0FDF732F8B1
:10B56000204607B0F0BD5648FBE73E4801210838A9
:10B570000170287800280DD06946088A498A484316
:10B5800081B23848083001F0D5FC04464DA0FDF7E3
:10B5900019F8E2E733480830416859A0FDF712F87E
:10B5A00000263048B1B205AA083001F097FC04002B
:10B5B00003D0024631465A4814E0314659A0069A53
:10B5C000FDF700F81C20314641436048002308186D
:10B5D00005461C2205A901F047FD040008D00246DB
:10B5E00031465B48FCF7EEFF1E4808380770B4E7A9
:10B5F0002A7C314657A0FCF7E5FF287DAA7D697DAE
:10B600006B4607C3EB7CAA7C697C5CA0FCF7DAFF85
:10B61000761C072EC5D3A0E75B444D5D3A203E3E25
:10B6200020646D5F696E69742E0D0A005B444D5D88
:10B630003A20496E697469616C697A696E67204164
:10B6400070706C69636174696F6E20496E737461A8
:10B650006E6365203078253038582E0D0A000000C2
:10B66000F026002078200020BDB701005B444D5D2E
:10B670003A204661696C656420746F207265676961
:10B680007374657220776974682073746F72616770
:10B6900065206D6F64756C652C20726561736F6ECB
:10B6A000203078253038582E0D0A00005B444D5D5F
:10B6B0003A203C3C20646D5F696E69742E0D0A006F
:10B6C0000E8000005B444D5D3A20537563636573E3
:10B6D0007366756C6C7920726571756573746564D9
:10B6E00020636C656172206F662070657273697388
:10B6F00074656E7420646174612E0D0A0000000090
:10B700005B444D5D3A2053746F72616765206861D8
:10B710006E646C65203078253038582E0D0A000094
:10B7200030DD01005B444D5D3A5B307825303258A6
:10B730005D3A20426C6F636B2068616E646C6520BB
:10B740003078253038582E0D0A000000E025002002
:10B7500074DD01005B444D5D3A5B4449203078253F
:10B760003032585D3A20446576696365207479709B
:10B7700065203078253032582E0D0A005B444D5D2F
:10B780003A204465766963652041646472203078AC
:10B790002530325820307825303258203078253006
:10B7A00032582030782530325820307825303258C1
:10B7B000203078253032582E0D0A0000FFB56F4832
:10B7C00091B000681A9F1E4600287DD0742F7BD848
:10B7D00001A8FFF77FFE002803D000221146FDF7E5
:10B7E000E3FA002468460471047325460797089617
:10B7F000A9B209AA624801F071FB002806D108220B
:10B8000009A91198FCF7E0FC002818D06D1C072D41
:10B81000EED3684680790090FF2855D0129806AD87
:10B8200003280FD057481C21301AFCF77FFC012752
:10B8300007281ED20495139800280BD012E0684602
:10B840008571E6E7742F03D04020694608738CE0C9
:10B850002020FAE70099384688404949103949685C
:10B86000084231D0009802F093F82020694608730E
:10B870006AE042481C214C38301AFCF757FC00287B
:10B8800025D03E4824213038301AFCF74FFC0028E0
:10B890003AD069464A793CA00099FCF793FE4020D3
:10B8A00069460873434886425FD08879354A8100EB
:10B8B0001C3A5158B14256D1304904950C39C97AD5
:10B8C000884241D1684600E04DE044713CE0684662
:10B8D0004279817938A0FCF775FE202168460495ED
:10B8E0000173447125480E940C300F9058380B901A
:10B8F000684680791C214843224940180C900BA8C7
:10B900000890182007901FE06846427936A00099F9
:10B91000FCF758FE3021684601734471C77117481F
:10B9200022460C38807A80070ED4684681793A48DE
:10B93000FCF748FE68464079242148430F493039D6
:10B9400040182421FCF735FC129869460228087B30
:10B9500011D00221084369460873049503A901A880
:10B96000139AFDF72DFA15B0F0BD097B03200143B2
:10B9700068460173F1E73843EEE70000F026002047
:10B9800080200020E02500205B444D5D3A5B30784C
:10B99000253032585D3A5B3078253032585D3A2098
:10B9A00041707020636F6E74657874204576656EA3
:10B9B000740D0A00D0DB01005B444D5D3A5B3078CA
:10B9C000253032585D3A5B3078253032585D3A2068
:10B9D000426F6E6420636F6E74657874204576657F
:10B9E0006E740D0A000000005B444D5D3A5B3078D8
:10B9F000253032585D3A5B3078253032585D3A2038
:10BA00005365727669636520636F6E746578742020
:10BA10004576656E740D0A00A4DE010070B5064619
:10BA20001D480D460078002815D01C48002E11D066
:10BA3000002D0FD0296800290CD019A0FCF7C2FDF9
:10BA40001D4C2068002809D0144C0A3C1BA0FCF7B0
:10BA5000B9FD204670BD1148801F70BD1DA0FCF7C8
:10BA6000B1FD286820600522691D201DFCF788FBB8
:10BA70002879A072207A0221400840000843FB2266
:10BA800010402072E0790123184308431040E07110
:10BA9000002030700446D9E7702000200E8000009E
:10BAA0005B444D5D3A203E3E20646D5F7265676980
:10BAB000737465722E0D0A00F02600205B444D5D04
:10BAC0003A203C3C20646D5F7265676973746572EF
:10BAD0002E0D0A005B444D5D3A204170706C696325
:10BAE0006174696F6E20496E7374616E6365206165
:10BAF0006C6C6F63617465642E0D0A0010B50E499D
:10BB000000238A78CC78A24212D0521CD2B28A701A
:10BB1000022A00D18B708A78074B92001C339A5806
:10BB20000260486910180002000A4861012010BD37
:10BB30000360002010BD0000CC200020F7B5144C9D
:10BB40000025A76823691EE024215943C9194E68BE
:10BB5000864202D9301A486017E0801B751900260A
:10BB60004E600E750E699C460B6AB646002E0AD0D2
:10BB7000019E76193602360A8E607646CE601668C9
:10BB80000E6261461160591CDED12361FEBD0000CA
:10BB9000CC20002010B5002803D0112802D0FDF7DA
:10BBA00083F910BD0248082241681143416010BD6D
:10BBB0008820002010B51C4C2178204640680129BF
:10BBC00006D0022929D0032912D1000717D513E086
:10BBD000000711D415481422017851430818C18870
:10BBE000A28B891A0904090CC18002D001F064FDFE
:10BBF00010BDFEF717FC10BD00F030FE10BD6069EF
:10BC0000401C606100F03AFC002803D0207801F06D
:10BC10005FFC10BDFEF7A2FB10BD607804498000F8
:10BC20000858804710BD00008820002060270020B1
:10BC300028DC010010B528DFFFF7ACFF10BD10B500
:10BC400029DFFFF7A7FF10BD10B50446C0B2FDF70E
:10BC500031FB204610BD000010B502A0FCF7B2FC7D
:10BC6000002010BD5B444D5D3A202D2D3E206761C4
:10BC70007474635F636F6E746578745F6170706C09
:10BC8000790D0A0010B502A0FCF79CFC002010BD45
:10BC90005B444D5D3A202D2D3E2067617474635FD7
:10BCA000636F6E746578745F6C6F61640D0A000079
:10BCB00010B502A0FCF786FC002010BD5B444D5D72
:10BCC0003A202D2D3E2067617474635F636F6E743C
:10BCD0006578745F73746F72650D0A00FEB5054672
:10BCE000002001900746009035A0FCF76BFC3C4C0F
:10BCF000697824204843001943680C2026464843AD
:10BD000024368019827A37A0FCF75CFC68782421FD
:10BD1000414309194968002915D00C21484380196D
:10BD2000807AC1090FD040060DD43AA0FCF74AFC36
:10BD30006978242041430A19104608300190908800
:10BD400080B20090675868780C21484380190089B8
:10BD50003B46009A0199A9DF04460B280AD168786E
:10BD60000C2101274843801900893B46009A01991C
:10BD7000A9DF0446002C04D001462EA0FCF722FCCB
:10BD80003A4C012F19D168780C2148438019008959
:10BD9000374AA7DF040010D001463648FCF712FCF2
:10BDA0003548844208D0082C06D0801C844203D039
:10BDB000112C01D0002400E02C4C2046FEBD0000D8
:10BDC0005B444D5D3A202D2D3E2067617474735F96
:10BDD000636F6E746578745F6170706C790D0A00C2
:10BDE000C02600205B444D5D3A5B434920307825F6
:10BDF0003032585D3A2053746174652030782530B4
:10BE000032582C2053697A65203078253038580D07
:10BE10000A0000005B444D5D3A2053657474696EFE
:10BE2000672073746F72656420636F6E74657874D5
:10BE30002E0D0A005B444D5D3A204661696C6564D5
:10BE400020746F207365742073797374656D20613D
:10BE50007474726962757465732C20726561736F96
:10BE60006E203078253038582E0D0A0041800000B1
:10BE7000FFFF0000B8DD010002300000F8B50C46FD
:10BE800007468A78497816A0FCF79CFB6078242145
:10BE90004843214D0A4640193823394601F0E4F859
:10BEA0006178060005D002461CA0FCF78BFB3046EB
:10BEB000F8BD242048434019436827487A68FCF7B6
:10BEC00081FB6078242148434019FDF7EBF8607846
:10BED0002421484340194168491CE8D14160E6E704
:10BEE0005B444D5D3A5B4349203078253032585DE4
:10BEF0003A5B4449203078253032585D3A202D2D68
:10BF00003E2067617474735F636F6E746578745FED
:10BF10006C6F61640D0A0000C02600205B444D5D1B
:10BF20003A5B253032585D3A204661696C65642081
:10BF3000746F206C6F61642053657276696365204D
:10BF4000636F6E746578742C20726561736F6E20F8
:10BF5000253038580D0A000078DF0100F3B589B0AC
:10BF60000C461A206946888303273BA0FCF72AFB6E
:10BF700060780C214843404E3B468019008907AA4F
:10BF80006946AADF002863D1607824214843751AE6
:10BF9000401969468A8B0830FCF716F900280CD046
:10BFA00060782421484340194068A178002819D0BE
:10BFB00032A0FCF707FB3E4E18E0A1783DA0FCF74D
:10BFC00001FB61780C2048438019807A80073FD4B8
:10BFD00047A0FCF7F7FA6078242148434019FCF7A2
:10BFE000E8F835E050A0FCF7EDFA5A4E60782421CD
:10BFF00048432F506846828B60784843401942601E
:10C0000060784843401969460830FCF7B9F8607811
:10C01000242148434019FDF745F86078242148431E
:10C0200040194268A1784CA0FCF7CCFA6078242132
:10C0300048434119382324220998B047020004D00C
:10C04000A1784FA0FCF7BEFA02E05DA0FCF7BAFAB7
:10C0500000200BB0F0BD00005B444D5D3A202D2D5B
:10C060003E2067617474735F636F6E746578745F8C
:10C0700073746F72650D0A00E42600205B444D5D09
:10C080003A5B3078253032585D3A205570646174DF
:10C09000696E672073746F72656420736572766968
:10C0A000636520636F6E746578740D0A000000008C
:10C0B000A9D201005B444D5D3A5B3078253032589F
:10C0C0005D3A204E6F206368616E676520696E205F
:10C0D000474154545320436F6E7465787420696EE1
:10C0E000666F726D6174696F6E2E0D0A000000003C
:10C0F0005B444D5D3A5B3078253032585D3A2052D2
:10C100006573657474696E672047415454532066A3
:10C110006F722061637469766520696E7374616EF5
:10C1200063652E0D0A0000005B444D5D3A5B30787C
:10C13000253032585D3A2053746F72696E672073F0
:10C1400065727669636520636F6E746578740D0A35
:10C1500000000000C9D101005B444D5D3A5B3078BE
:10C16000253032585D3A204741545453204461747D
:10C17000612073697A65203078253038580D0A00BF
:10C180005B444D5D3A5B3078253032585D3A46610C
:10C19000696C656420746F2073746F7265207365B9
:10C1A000727669636520636F6E746578742C207293
:10C1B0006561736F6E203078253038580D0A0000A5
:10C1C0005B444D5D3A205365727669636520636F09
:10C1D0006E74657874207375636365737366756CCC
:10C1E0006C792073746F7265642E0D0A0000000074
:10C1F00010B5044605A0FCF7E5F92046FFF76EFDF3
:10C20000002802D12046FFF727FD10BD5B444D5D9D
:10C210003A202D2D3E206761747473635F636F6EE7
:10C22000746578745F6170706C790D0A00000000AD
:10C2300070B505460C4607A0FCF7C4F92146284610
:10C24000FFF71CFE002803D121462846FFF71AFD00
:10C2500070BD00005B444D5D3A202D2D3E2067618E
:10C26000747473635F636F6E746578745F6C6F6111
:10C27000640D0A0070B505460C4607A0FCF7A2F94C
:10C2800021462846FFF76AFE002803D121462846AA
:10C29000FFF70EFD70BD00005B444D5D3A202D2D73
:10C2A0003E206761747473635F636F6E7465787446
:10C2B0005F73746F72650D0A0000000070B506466A
:10C2C000104C0125B540E068FCF7C0FE00280CD1F9
:10C2D0006169294207D1304600F064FC00282069DA
:10C2E00004D0284303E0A943616170BDA8432061E5
:10C2F0006069002228436061A168E068FCF764FE81
:10C3000070BD0000B420002010B500F04BFC0028E8
:10C3100001D0002000E0012000F02AFD10BD000047
:10C3200070B51B4C207900072ED41A4814220178CE
:10C3300051430D182E6900F063FE0146E8882A89F2
:10C34000761E80188019FBF7F1FE2169002500296F
:10C3500009D06169814206D1E56060680121084326
:10C36000606000200AE000F089F8002802D0022076
:10C37000E56003E02069002803D0032001F0E4F920
:10C3800070BDFDF7EBFF70BD01F0D2F970BD00008C
:10C390008820002060270020F8B51E4C2078002857
:10C3A00037D02069002807D00026E068002805D093
:10C3B0000025002E04D013E00126F6E70125F8E75A
:10C3C000684651DF052806D0002806D00022114615
:10C3D000FCF7EAFC04E0012602E0216900988847A6
:10C3E000002D12D1608869460880A06861DF0528A9
:10C3F00006D0002806D000221146FCF7D5FC04E048
:10C40000012502E0E168A0688847002ED8D0002D01
:10C41000CFD0F8BDF820002041880548028891421D
:10C4200004D34088814201D8012070470020704722
:10C43000602000201048018CC9B2012917D1818CDD
:10C44000090714D1018D09060A0F03D1828D120646
:10C45000120F0ED0090F012903D1828D1206120F7F
:10C4600007D0032903D1808D0006000F01D00020E2
:10C470007047012070470000C00F00F070B50E48F3
:10C480001422017851430C18256900F0B9FD0146CA
:10C49000E08822896D1E80184019FBF747FE074986
:10C4A0004A69824206D3824202D10869002801D03B
:10C4B000002070BD012070BD602700208820002072
:10C4C000800701D0002070470120704710B5044854
:10C4D000017AC90702D00078FDF768FD10BD0000A1
:10C4E0000C200020F8B5234801690091457833E01D
:10C4F0002048E900C0680E1834782AE0182060430C
:10C500007168641C0818B178E4B2A14200D100241B
:10C510000178022902D003291BD113E0154A406893
:10C520002421926841438F18397D002911D001F0F0
:10C5300065F9002038750CE024277843C01802758F
:10C54000006A03E00B4900228B680869471CF3D19D
:10C5500008617078A042D1D128466D1EEDB2002846
:10C56000C6D1044801690098814201D00120F8BD7C
:10C570000020F8BDCC200020F8B50446384800273C
:10C580000169009146785CE03548F100C2688D1879
:10C5900051E0601C07D0324A242092686043214653
:10C5A0008018046A24E02878182141436A68401CF6
:10C5B000C0B252182870A978884200D12F70284B39
:10C5C000516824209B684843C0181378012B34D14C
:10C5D000037D002B31D193688360D368C3601369F6
:10C5E00003615269C2611E4A5279002A00D08760F5
:10C5F0001B4B82685B6996469C46D31A1A02194BFC
:10C60000120A9A4202D2C368D21808E07246634600
:10C610009A1A1202C368120A934202D99A1A426005
:10C6200000E0476087600122C7600275921E0262C7
:10C63000084601F0B1F8601CABD1287869788842CF
:10C64000A7D13046761EF6B200289DD10448016974
:10C650000098814201D00120F8BD0020F8BD000003
:10C66000CC200020FFFF7F0096B0FCF735FD0024B2
:10C67000694B0522092120460094FCF74BFC002859
:10C6800003D000221146FCF78FFB644A0121644865
:10C69000FCF71AFC002803D000221146FCF784FBAB
:10C6A000604A61490320FDF731FC002803D00022D5
:10C6B0001146FCF779FB69460020FDF703FB0028D3
:10C6C00003D000221146FCF76FFB68460078022871
:10C6D0007ED0002168460171FDF730FA6846007986
:10C6E000FEF724FB012001461031684601730B223E
:10C6F0004EA103A87CDF002803D000221146FCF7DE
:10C7000053FB00945021684601940180A021418090
:10C71000FF2184809131C1807ADF002803D000227C
:10C720001146FCF741FB302101A8FBF742FD022135
:10C7300068460171012585710621C17185823848DD
:10C740002421001F06900DA8FBF733FD10A80570EB
:10C75000FF202D301190B4201290374B0DAA0021EC
:10C76000009401A8FCF7E2FD002803D00022114646
:10C77000FCF71AFB3148009069463148FDF754F93F
:10C78000002803D000221146FCF70EFB1C2168464E
:10C79000FBF70FFD0520C00301900F20000402905D
:10C7A0000094032168460173C481047425480590F0
:10C7B000254806906846FDF799F8002803D0002226
:10C7C0001146FCF7F1FA214845600321072000E0FB
:10C7D00017E033DF07202EDF1E481D49416005604A
:10C7E0000F48002208381C498068FCF7EDFB002840
:10C7F00003D000221146FCF7D7FA0320FCF704FF10
:10C8000002E0012166E748DF0028FCD00022114643
:10C81000FCF7CAFAF7E700000C2100204D8B01005D
:10C82000082000206D9E0100CD0C00004E6F726448
:10C8300069635F554152540029CD0100E9CC0100E4
:10C84000842400204DCD010089A501000073004023
:10C8500008200000007500409A19000010B5044837
:10C860000822416891434160007800F031FE10BD1C
:10C870008820002070B5054600790E46801C1446BD
:10C88000C0B21178821C8A181F2A01D90C2070BDF1
:10C890000A46491C2170401CB0542078FF22411CDC
:10C8A0002170325420788119288801F06BF82178A2
:10C8B0004018C0B22070AA88002A09D0A9680029AF
:10C8C00008D08019FBF75CFC20782979401820708B
:10C8D000002070BD072070BDF8B514780746A01C75
:10C8E00015460E461F2803D87878801C1F2801D9CA
:10C8F0000C20F8BD1D20001B80B2694686460880CA
:10C900003019801C7DDF0028F3D13878022805D14A
:10C9100068460088704501D8092107E07878082129
:10C92000002801D0704501D968460088421C325564
:10C93000641CE2B2B1542978801C081828700020C9
:10C94000F8BD000010B5044604A0FBF73BFE61787B
:10C950000CA0FBF737FE002010BD00005B444D5DCE
:10C960003A202D2D3E206E6F5F7365727669636588
:10C970005F636F6E746578745F6170706C790D0AB7
:10C98000000000005B444D5D3A5B43492030782550
:10C990003032585D3A204E6F205365727669636578
:10C9A00020636F6E746578740D0A000010B502A0E4
:10C9B000FBF708FE002010BD5B444D5D3A202D2D95
:10C9C0003E206E6F5F736572766963655F636F6E3D
:10C9D000746578745F6C6F61640D0A0010B502A015
:10C9E000FBF7F0FD002010BD5B444D5D3A202D2D7E
:10C9F0003E206E6F5F736572766963655F636F6E0D
:10CA0000746578745F73746F72650D0A00000000BE
:10CA10008207D30EFF229A408907090E10B599406C
:10CA200000280BDA03071B0F083B9C080C4BA400E3
:10CA3000E318DC6994430C43DC6107E08408094B8C
:10CA4000A400E418236893430B432360C106C90E76
:10CA500001208840044908600449086010BD0000B6
:10CA600000ED00E000E400E080E200E000E100E032
:10CA7000F3B581B00F46019800F004FA01240028B4
:10CA80001E4E019817D0FDF7DFFB8019403000786B
:10CA90008009032802D0012806D007E01848006961
:10CAA00001998C40204201D1022100E0032101982C
:10CAB00000F000F9FEBD00F0F1F90028FAD001986D
:10CAC000FDF7C2FB05468100C81D0E4AF9308918E2
:10CAD0000A6980B222430A610B49401800210160B3
:10CAE000002FE7D00198FDF7AFFB800030580028F9
:10CAF000E0D00648AC404460FEBD00001427002092
:10CB000000050050006500400060004000630040E8
:10CB1000F8B5204F0D460446381924214156002609
:10CB2000C8171346401C01D0082630E0EA781946A1
:10CB30002046FDF765FB411C28D0174BAA78A100C1
:10CB4000C918002A03D00A6802239A4301E06A78D0
:10CB500092000A60E978002910D082000F482978F5
:10CB6000101802690E4B1A400261E206D20C8907C6
:10CB7000890B0A4301690A43026108E03818403012
:10CB80002A78017892011143017000E004263046B2
:10CB9000F8BD000014270020000700500065004089
:10CBA000FFE0FCFF03490969C140C807C00F00D07E
:10CBB000012070470005005070B5124D687A0028BA
:10CBC00001D0082070BD0F4900204039421E0B18CB
:10CBD0002033401CC0B21A712028F8D3002420460C
:10CBE000FDF700FB641CE4B2092CF8D301210620F8
:10CBF000FFF70EFF01200449C0074860012068725A
:10CC0000002070BD54270020006300400248407A95
:10CC1000002800D00120704754270020F8B50446B2
:10CC20001F480D4600192030042141560026491C9A
:10CC300001D008262FE0A97800291DD0012200216B
:10CC40002046FDF7DDFA411C14D0830015482A78F0
:10CC5000181869780369144F3B4003610369E706BC
:10CC6000FF0C9207920BC907C90A3B430A431343BF
:10CC7000036104E004260EE00121C94301710B4A5F
:10CC80000320A100891808606A780120A0400849A3
:10CC9000012A02D0C8603046F8BD8860FBE700007A
:10CCA0001427002000650040FFE0ECFF0007005063
:10CCB00000050050820006481018026803231B0478
:10CCC0009A430260026809040A4302607047000048
:10CCD00000070050034940180068012800D00020D8
:10CCE000704700000060004070B515460E4608A071
:10CCF000FBF768FC002404E0315D09A0FBF762FC4F
:10CD0000641CAC42F8DB07A0FBF75CFC70BD0000C4
:10CD10004E555320736572766963653A20000000B2
:10CD2000256300000D0A000010B500280BD0032871
:10CD300008D10220FDF7DCF8002803D000221146BC
:10CD4000FCF732F810BD00F0A8FB10BD10B500785C
:10CD5000002809D105483B21408876DF002803D010
:10CD600000221146FCF720F810BD00000020002032
:10CD700010B51D4A1D490300FBF734FC05040B31B7
:10CD800020271200487801281FD0022808D103204C
:10CD900005E04878002804D0032801D1022048701B
:10CDA00010BD134B04201860124B012018609368CB
:10CDB000D2689A42F3D0FBF76BFE10BD4878012889
:10CDC00006D0022804D00328F7D1FBF799FE10BD46
:10CDD0009068D1688142EED1FBF780FE10BD4878A3
:10CDE0000128E8D010BD000054280020AC2000200D
:10CDF00000250040002000400021425C002A01D0B4
:10CE000001207047491C0629F7D300207047000015
:10CE100070B5054601460FA0FBF7D4FB1C2018494E
:10CE200068434418204611300621FBF7C2F920461A
:10CE30001021FBF7BEF9FF2121740020A176C04329
:10CE40002083284600F0A4FD0D4A0020A9001C3ACA
:10CE5000505070BD5B444D5D3A20496E6974696104
:10CE60006C697A696E67205065657220496E7374CB
:10CE7000616E6365203078253038582E0D0A000029
:10CE8000E02500200449081824214156042901DB2B
:10CE9000012070470020704714270020044908181B
:10CEA00024214156042901D20120704700207047F7
:10CEB0001427002007490979490701D40820704741
:10CEC000002804D0044949780160002070470E20F2
:10CED00070470000882000206027002070B5134BA9
:10CEE0001B795B0701D4082070BD002817D0002AE9
:10CEF00015D00368022B10D20C240D4D5C432E5923
:10CF0000002E0AD04668601904894589406861434B
:10CF1000654371182818884203D8072070BD0E2079
:10CF200070BD13600020516070BD0000882000209B
:10CF30002C280020FEB5044626480E4600794007FE
:10CF400001D40820FEBD002C25D02068022836D24E
:10CF50000C21214D48432958002930D040194189DE
:10CF600002894068514309186068814227D9FFF758
:10CF7000A7FA002811D06068019021680C22514363
:10CF80004F1979680091401A39890D46FBF7CEF8A0
:10CF9000002914D103E00E20FEBD1020FEBD29465D
:10CFA0003046FBF7C3F8002909D1002E07D0788955
:10CFB00000994543019849198019884201D90720F1
:10CFC000FEBD002002460090334621460320FDF7B7
:10CFD00003FAFEBD882000202C28002010B5074849
:10CFE0004469601C06D000F00BF801462046FBF7B0
:10CFF0009DF810BD01200007406910BD0010001011
:10D0000001200007006980B27047000070B500245D
:10D0100013482546047044702846FDF7CDF96D1C71
:10D020000A2DF9D30F4D6C80FFF7D8FFC61EFFF70E
:10D03000E7FF46430A4A0020AE60CC326C610C2107
:10D040004143545089180C81401C4C810228F6D36E
:10D050002C70AC610420EC616860002070BD0000A1
:10D060006027002088200020FFB5284881B0007983
:10D070001F4616460C46400702D4082005B0F0BDF6
:10D08000002C1DD0019800281AD02068022815D243
:10D090000C211F4D4843295800290FD041194A89B6
:10D0A00008894968424351186268914206D9002EA6
:10D0B00004D0B04202D3F119814203D90720DDE741
:10D0C0000E20DBE70198FFF7FBF900281BD038465C
:10D0D000FFF7F6F9002816D06068FFF7F1F900288D
:10D0E00011D060683246C1190198FBF749F80096E3
:10D0F00020680C2148432D58002202212046019B24
:10D10000A8470020BAE71020B8E7000088200020D8
:10D110002C280020F8B52A4D044628790E464007F1
:10D1200001D40820F8BD002C20D0002E1ED020688D
:10D1300000281BD0FFF764FF0146A088814213D36B
:10D14000102811D3E08800280ED0FFF747FF471EB4
:10D15000FFF756FF4743E288A088A9684243521868
:10D16000974201D3800703D00720F8BD0E20F8BDF9
:10D170006888022821D003C60C22124B5043C218E3
:10D18000516021681950A0881081E0885081FFF714
:10D1900037FF0146A088E2885043401EFAF7DCFFC3
:10D1A000441CFFF72DFF0146A86861430818A860DA
:10D1B0006888401C68800020F8BD0420F8BD00008D
:10D1C000882000202C280020F8B5044621481E465F
:10D1D000007915460F46400701D40820F8BD002FFE
:10D1E0001CD0002C1AD02168022915D20C204143F2
:10D1F00019484258002A0FD008184289018940680E
:10D200004A4310186268904206D9002D04D0A94202
:10D2100002D3A819884203D90720F8BD0E20F8BD13
:10D220003846FFF74DF9002811D03046FFF748F98E
:10D2300000280CD06068FFF743F9002807D02B4680
:10D240003A46214601200096FDF7C6F8F8BD1020A9
:10D25000F8BD0000882000202C28002010B51149BE
:10D2600002460878002811D004280FD0022A16D0D0
:10D27000032A0BD10A79120711D48A69521C8A61D8
:10D28000032A08D0022802D000F022F910BD487805
:10D2900000F05AFA10BD0D20FBF706FE10BDFEF798
:10D2A00089FC10BD88200020F8B5044621481E46A0
:10D2B000007915460F46400701D40820F8BD002F1D
:10D2C0001CD0002C1AD02168022915D20C20414311
:10D2D00019484258002A0FD008184289018940682D
:10D2E0004A4310186268904206D9002D04D0A94222
:10D2F00002D3A819884203D90720F8BD0E20F8BD33
:10D300003846FFF7DDF8002811D03046FFF7D8F88F
:10D3100000280CD06068FFF7D3F8002807D02B4610
:10D320003A46214604200096FDF756F8F8BD102035
:10D33000F8BD0000882000202C28002070B50124B2
:10D340000B49600408600B49401088600949403966
:10D350008860094D6C602F20FAF7BCFEAC60074D69
:10D3600000242F206C61FAF7B5FE2C7170BD00000F
:10D3700080E100E04013014000100140CC2000207B
:10D3800070B500240546601C90B00007000F08A986
:10D39000103008940870601C0007000F10304870AF
:10D3A0008878F9263040801C88701C2101A8FAF783
:10D3B00000FF694608791021084369460871029404
:10D3C00008A80494059407940690287808A9887101
:10D3D000032069468884112000940870487088787A
:10D3E000F7213040801C0840EF21084001263043DF
:10D3F0006946887014210AA8FAF7DBFE09A80A908A
:10D4000068460B9069460E8614204C8688862B460B
:10D4100068880C330AAA01A9A2DF10B070BDF7B565
:10D4200082B002981446806A0F46002833D00298D2
:10D4300000252030009028E00298816A0C20684383
:10D440000E18217830794A1C2270C01C785420783C
:10D450001622411C21703A542078C119308800F0FE
:10D4600091FA21784018C0B22070B288002A09D001
:10D47000B16800290FD0C019FAF782FE20783179FF
:10D48000401820706D1C0098EDB2007BA842D3D8E4
:10D49000002005B0F0BD0720FBE710B50020FCF729
:10D4A00027FD002803D000221146FBF77DFCFCF786
:10D4B0006FFC002803D000221146FBF775FC3CDF0F
:10D4C000002803D000221146FBF76EFC10BD0000BF
:10D4D00010B50F490028087009D0012811D0022882
:10D4E00012D0032802D14869FEF7A4FB10BD00202A
:10D4F0008861C861074840780028F7D0FCF740FFF2
:10D5000010BD00F0D9F810BD00F038F810BD0000D3
:10D51000882000206027002010B508461146C0462C
:10D52000C04610BD002803D00249C86000207047E3
:10D530000E207047F820002070B5002901D08C071C
:10D5400001D0072070BD064C0125A160628005490D
:10D55000636010DF0028F5D1257016202EDF70BD26
:10D56000F820002019D50100002803D002490861E5
:10D57000002070470E207047F8200020F8B5164CA8
:10D5800014226068400840006060144801785143EC
:10D590000E183769FFF734FD01463846FAF7C6FD25
:10D5A00005466061FFF72CFD0146F0887F1EC0191B
:10D5B000FAF7BCFD02228542606801D1104300E009
:10D5C00090436060E1681040084303D0002000F001
:10D5D000BBF8F8BD0220FAE7882000206027002071
:10D5E00010B502484069FEF725FB10BD88200020D9
:10D5F00010B5FFF7F3FC441EFFF702FD4443FFF7AD
:10D60000FFFC04494A69521E5043CA682146FEF78E
:10D6100016FB10BD88200020F8B5104814220178B0
:10D6200051430C182569FFF7EBFC0146E08822897D
:10D6300080184019FAF77AFD0F46FFF7CFFC461E17
:10D64000FFF7DEFC4643E0882289F1198018044A7E
:10D6500040191269FEF7F3FAF8BD000060270020B8
:10D660008820002070B5FFF7CBFC0546FFF7B6FC1D
:10D67000441EFFF7C5FC60432946FAF757FDFEF745
:10D68000D9FA70BD70B5FFF7BBFC8608FFF7B8FC90
:10D690000749496948430446FFF7A0FC451EFFF7C8
:10D6A000AFFC684332462146FEF7C9FA70BD000060
:10D6B000882000200020704770B51448142201789B
:10D6C00051430C18241DFFF79BFC6188104E8842C3
:10D6D00011D2FFF795FC61880D1AFFF791FC8208C3
:10D6E000A188E0684018216940194919FEF7A7FA96
:10D6F000FFF786FC07E0A288E06880188A082169A5
:10D70000FEF79DFA6088F06170BD00006027002080
:10D710008820002010B505480079000703D40120B7
:10D7200000F012F810BD00F003F810BD88200020B2
:10D7300010B504480822416891434160407800F0E8
:10D7400003F810BD8820002002494870024980007B
:10D75000085800478820002014DC010010B504465A
:10D76000FFF77CFD2046FBF70FFF10BD10B5054805
:10D770000079000702D4FCF7F1FD10BDFFF7D8FFD8
:10D7800010BD00008820002001200249000508602B
:10D790007047000000E200E0F0B5174F2421BC689C
:10D7A00041430D1939694A1C09D024224A431619EC
:10D7B0006B687268934204D8D21A72602962386129
:10D7C000F0BD0A4602E00A46396A9B1B4E1C0BD08C
:10D7D00024264E4337197E689E42F4D324264E43B6
:10D7E00036197768FF1A77606B60296224214A43F3
:10D7F00011190862F0BD0000CC20002070B5194C52
:10D800002269A5681346114606E0814207D00A4600
:10D81000242671434919096A4E1CF6D170BD002EA9
:10D82000FCD08A420CD1242043435819006A20615D
:10D83000401C05D10C4B012098600023636160718E
:10D84000242041434819242341685A43006A52194D
:10D850001062421CE2D02422504340194268511801
:10D86000416070BDCC20002000100140F8B51D4C77
:10D870002569681C35D01C48002640686169401A3B
:10D8800007023F0A19E024204543A0682A1850687F
:10D89000B84214D8A3693F1A8619156A002B09D01B
:10D8A000D16990699847002807D000221146FBF7FC
:10D8B0007BFA02E09169D0698847681CE3D1A178BE
:10D8C000E078814206D1401CC0B2E070022801D14C
:10D8D0000020E07003490006800D1C310E50FFF758
:10D8E00053FFF8BDCC2000200015014070B58EB06C
:10D8F00005461C216846FAF75CFC694608780C214D
:10D900000843694608700024019403940494059424
:10D910000694287808A98870022069460884601C4B
:10D920000007000F10300794087711204877887F90
:10D93000F9210840F721801C0840EF21084001260A
:10D94000304369468877142109A8FAF732FC08A801
:10D95000099007A80A9069468E851420CC85088610
:10D9600068882B1D09AAA2DF0EB070BD10B5017822
:10D97000022901D0012904D1002240681146FBF799
:10D9800013FA10BD0870000A4870022070470000AA
:10D9900001218140024842688A434260704700008A
:10D9A0007020002038B51549154A488890420FD09C
:10D9B0004A78144C521CD2B24A70237B934208D34B
:10D9C000083175DF002803D0A169002900D08847FD
:10D9D00038BD00254D70217C002907D03B2176DF22
:10D9E000002803D0A169002900D088476169002977
:10D9F000EED068460570884738BD000058200020EA
:10DA0000FFFF0000A825002012494868C005C00D8E
:10DA100019D0103840B2002807DA0207120F083A6E
:10DA2000920892005118C96904E081080A4A8900E5
:10DA3000891809688007C00EC1400806800F0128B8
:10DA400003D0032803D00220704700207047012034
:10DA50007047000000ED00E000E400E042788378C9
:10DA6000521C934200D100220378934201D100203E
:10DA700070470A6041684078182250430818704780
:10DA8000F8B51546069C1E4607460222009400F093
:10DA90000AF8002806D13346102229463846009459
:10DAA00000F001F8F8BDFFB583B0074600200C9CDC
:10DAB0008646267805463AE07868A90041180A8823
:10DAC000684682804988C1800022694601A865DFD6
:10DAD000002810D1684601780598814226D1704609
