:1000000000800020A9150000E9150000EB15000094
:1000100000000000000000000000000000000000E0
:10002000000000000000000000000000ED150000CE
:100030000000000000000000EF150000F1150000B6
:100040002D0F0000F31500006D120000F3150000E5
:10005000F315000000000000F3150000B50D0000CE
:10006000F3150000F3150000F3150000F315000070
:10007000F3150000F3150000F3150000F315000060
:10008000F3150000A9020000F3150000F3150000AD
:1000900085030000F3150000F3150000F3150000C0
:1000A000F3150000F3150000000000000000000040
:1000B0000000000000000000000000000000000040
:1000C00010B5064C2378002B07D1054B002B02D02E
:1000D000044800E000BF0123237010BD9000002001
:1000E000000000004C17000008B5084B002B03D09F
:1000F0000748084900E000BF07480368002B00D10B
:1001000008BD064B002BFBD09847F9E70000000024
:100110004C170000940000208C000020000000001C
:10012000164B002B00D1144B9D46402292029A1A86
:10013000924600218B460F461348144A121A00F0CB
:1001400067F80F4B002B00D098470E4B002B00D0C8
:1001500098470020002104000D000D48002802D01F
:100160000C4800E000BF00F02DF82000290001F04D
:1001700083F900F011F8C04600000800008000205C
:10018000000000000000000090000020D8050020C2
:100190000000000000000000084B10B5041C002BFC
:1001A00002D0002100E000BF054B1868836A002BD5
:1001B00000D09847201C00F033F8C0460000000033
:1001C000FC1600000E4B70B500251E1C0D4CE41AE9
:1001D000A410A54204D0AB00F35898470135F8E7C6
:1001E00001F07EFA084B00251E1C084CE41AA410EE
:1001F000A54204D0AB00F35898470135F8E770BD2D
:10020000840000208400002084000020880000205A
:10021000031C8218934202D019700133FAE7704729
:10022000FEE7C04680218023194A890230B5D150AB
:100230008023D2210124174A5B02890053504039A0
:100240005350154B546019682F2314481D1CC04689
:10025000C046C046C046C046C046C046C0468142B1
:1002600000D0C046013DF2D1946000220C4C2260C7
:10027000C046C046C046C046C046C046C046C0464E
:10028000814200D0C046013BF2D1064B1A7030BD0E
:1002900000E100E000100140800000200024F40094
:1002A000AC000020CC000020A021F0B50023474680
:1002B0002B4A490080B453500431535004315350F9
:1002C000043153504C39535004315350254B1B6863
:1002D000002B35D02449002652582449244F0C685D
:1002E000141B00222402240A904602E0002D18D09C
:1002F0002B1C1A68A24214D8A41AB6181A7CDD69FD
:10030000002AF3D0424699691A745A693B68002B57
:1003100019D0101C98470028E8D000F06DFC002D83
:10032000E6D1144B14491A780B789A420ED0134A2E
:100330009B009E5080218023114A49035B00D150CD
:1003400004BC9046F0BD081C9047CFE70132D3B201
:10035000022B01D00B70EAE700230B70E7E7C046E1
:1003600000100140B000002004050000AC00002097
:10037000B4000020B8000020B9000020C400002014
:1003800000E100E0F0B556465F464D464446F0B405
:10039000924B934A1B6893499A460978137887B021
:1003A000994200D1D2E10133DBB2022B00D1A1E1AD
:1003B00013708D4A9B009F585346FB181B02874AB7
:1003C0001B0A136001230293884B00241978884B81
:1003D0001B689946854BC8465B780193834B5B68E5
:1003E0009C46824B65469E787C4BBC461B689B4670
:1003F000804B1B7800934B46019A91421AD04A00D9
:1004000052180131C9B2881B471EB841D200404280
:10041000AA1801401078022800D1A8E00328EBD1E7
:10042000002BE9D01C74DB69002BFBD1019A9846A4
:100430009142E4D141466E4A674611605946674A87
:10044000116069466B4A09781170029A002A00D03F
:1004500059E14A46D21A511E8A4100251E1CD2B2C9
:10046000059203935D4B00271B689846604B1B6801
:100470009B465E4B5B689A465C4B9B7802935B4B5A
:100480001B789C465B4B1B7804935B4B00930123CA
:100490009946002D27D06968A8682C1CED69434651
:1004A000CA1A009B1202120A9A424DD813184A46E1
:1004B00023606760A7602274E761002E53D0316823
:1004C000301C994204D37AE0116899427ED2101C04
:1004D000C2695B1A002AF7D1E261321C2360C46151
:1004E000161C002DD7D1019B9C4500D186E06246A9
:1004F00063460132D2B25B00634494460299DB004A
:10050000521A511E8A4161465242114053448C4650
:1005100019785C68321C0129E2D1217C0029DFD1E5
:1005200099686160D868A0601A69E2605B69A3613C
:10053000049B002BB3D043460021CA1A009B120231
:100540006560120A9A42B1D94346591A0902090A4A
:1005500081422AD24A46431A23606760A760227408
:10056000E761002EABD1221CA346161CB9E75768E1
:10057000002B00D1F1E0181C9F4201D1BCE0101CFF
:10058000C269002A00D137E79742F8D13A1E824269
:1005900000D1B1E01768D269C261002A00D12BE70F
:1005A0001368DB191360434626E74B4627606760F4
:1005B000A7602374E761002ED5D000233168221C88
:1005C000CB1A3360A346E661161C8AE7C91A11608C
:1005D000E2612360321CC46182E7C046AC000020A7
:1005E000B8000020B9000020C4000020BC0000209A
:1005F000B0000020BA000020FEFF7F006246624B80
:100600001A705A46614B1A60039BB34200D163E0F3
:10061000002E00D19EE05E4B5E495F4DC8585F4B97
:1006200034681A682E78831A1B021B0A0333984613
:10063000002E21D18026D1277602BF00CE51403F27
:10064000CE51C0238027564EBF025B00F750376063
:1006500001260E605349544B0F682F21C046C046F7
:10066000C046C046C046C046C046C0469F4200D0B5
:10067000C0460139F2D12E704346A34200D2231C5A
:10068000A8249A1812024349130AE400404D0B5162
:100690004A591B1A121A1202120A1B0203321B0AAF
:1006A0009A421DD94B590B513E4B3F491A682F2393
:1006B000C046C046C046C046C046C046C046C0460A
:1006C0008A4200D0C046013BF2D180218023344AC7
:1006D00089025B00D15003E0059B002B00D097E717
:1006E0000023324A137007B03CBC90469946A2469C
:1006F000AB46F0BD00235BE6DF69002F38D0B8467B
:100700003B1C021C46E7414600250022002613E060
:100710001868B84223D83F1A1218D8681E60DC69DE
:10072000002807D05146DD611D1C51180902090A35
:1007300059609860231C211C002BE9D1134B1960D0
:100740000023039301330593039E8BE600230027C8
:10075000029339E6FFF766FDC2E700234CE6C71BAC
:1007600003931F600123094A05931160039E79E6F4
:100770000122084B01379A60002300970027984612
:10078000021CBB4606E7C046BC000020B0000020AB
:100790000405000000100140CC000020AC00002047
:1007A00000E100E0800000200024F400BA000020F6
:1007B000F0B54746032480B4061C0F1C151C984650
:1007C00014400720002C02D004BC9046F0BD002A43
:1007D000FAD0FFF727FD4246174B80201A60174BCF
:1007E000C0221C705C709F705D60154BFF211C6007
:1007F000144B40031C70144B52001C70C524134B47
:10080000A40098501A598A433F390A431A51A12229
:100810001860C4200E49D2008E5080001C580D4A2A
:100820002240C024240222431A500B4B0020CA58F5
:100830000A4B1A60C8E7C046B4000020BC00002084
:10084000B0000020B8000020B900002000E100E066
:1008500000100140FF00FFFF04050000AC00002075
:1008600010B50B4B5B68002B0BD0002A07D000287B
:1008700005D0036808201C7C002C04D010BD072084
:10088000FCE70820FAE759745A610020F6E7C046F1
:10089000BC000020F0B5474680B4274C6368002BAD
:1008A00008D0002806D00723042905D8181C04BC4A
:1008B0009046F0BD0823F9E74369002BFAD00025E4
:1008C000437CA846012B30D0051C0020171C0E1CB1
:1008D00000F0BCF96378A278591CC9B2521A501EB4
:1008E00082415242114022788A4220D05A00D318C5
:1008F0006268DB0094466344002B18D001220F4845
:100900001A700F4A5D608258DE609A6042465F61ED
:100910001A610020617000F0A1F980218023094A4A
:100920005B004903D1500023C0E78846CCE7002094
:1009300000F094F90423B9E7BC0000200010014046
:100940000405000000E100E00378012B01D1014A19
:1009500013707047CD000020F0B51B4F89B03B7875
:10096000051C002B03D0194B1B78834229D06A4603
:10097000174B6C4643CB43C243CB43C203CB03C2AA
:10098000002323750933009302330193033B039340
:10099000104E02330293104B301C069300F0E8FB1C
:1009A0000022002D0BD0301C211C00F03DFB002844
:1009B00003D101233B70054B1D7009B0F0BD074A00
:1009C000F1E70020F9E7C046CF000020CE0000206C
:1009D000001700006000002000E0D7014909000076
:1009E00008B50120FFF7B8FF08BDC046F0B547467F
:1009F00080B41B4D061C00208846AF6800F026F925
:100A0000AA686B682C68D31801331B1B012B07D80D
:100A1000002B18D1002000F021F904BC9046F0BD55
:100A2000631C00202B6000F019F907231E40F3001F
:100A3000424601263C40023492021E43A400164363
:100A40002C196660E9E72921064B9B020B43611CC8
:100A500014400234A4002C1929606360DAE7C04610
:100A6000D000002020170000F0B54D465F465646E6
:100A70004446F0B45D4D8DB06B682A68934200D156
:100A80008BE0AA685E1C13409C1CA300EB185F68F7
:100A9000032390463B400FD103223B04B90D9B0D2D
:100AA000CB184146F3185E1C0B409C1CA300EB18AE
:100AB0005F68131C3B40F0D0022B2DD0BB051B0FF1
:100AC000BA0A9C46002B00D18DE0F41806AB181C26
:100AD000414631400231890069184968013602C037
:100AE000A642F5D1614600918221B806C9006E5830
:100AF000400F0021B04700280CD06C602868041B10
:100B0000601E8441E0B20DB03CBC90469946A246BE
:100B1000AB46F0BD6C68F1E7731C9946434641460D
:100B20004846334002339B00EB185A6881433B042C
:100B30009B0D0131BE0D9B4689008E422FD90029A5
:100B400042D040464B461840023080002818031D12
:100B50009846CBB2F11A9C46CBB205930C239A4629
:100B6000059BAA444146009161460191514602917C
:100B70001F4903936958B8068C46400F00215B4615
:100B8000E047B0422AD01B4B8005000C3B40A4003C
:100B90002C19034363606C68B0E70020B3E74B4651
:100BA0004146194002318900691804310091002141
:100BB000029103910E4901966B58B8069C4600219C
:100BC0005B46400FE047DCE7F1B28C4600218A46E5
:100BD0000C31002388460593A844C3E703308008FE
:100BE0004844041C89E7341C06AB7BE7D000002096
:100BF000140400003F00FFFF002300B585B001AAE8
:100C00009060002103481380536000F005F805B0A0
:100C100000BDC0460140000008B501200849FFF7AB
:100C2000E5FEFFF7DDFEFFF71FFF0028FBD1BFF356
:100C30004F8F044A044BDA60BFF34F8FC046FDE785
:100C40002C1700000400FA0500ED00E072B6024A1D
:100C50001368013313607047E8040020034A1368E7
:100C6000013B1360002B00D162B67047E8040020FE
:100C700038B50C4C0D1CA27C0823002A01D0181C8E
:100C800038BD094B1A60002905D0002808D001782A
:100C9000072000F089F901232560A3740023EEE703
:100CA0000248F4E7EC040020007100404417000003
:100CB00000234360064B5A68002A01D105E01A1C44
:100CC0005368002BFBD1506070475860FCE7C0466A
:100CD000EC0400200122014B1A60704700700040B4
:100CE000F0B544465F4656464D46F0B42D4C1123B0
:100CF000A27C022A18D00F3BA3740023E060A0203E
:100D000062682174A26028491268284E63748A516F
:100D1000274AC000136001330B502568002D0AD00C
:100D2000C12292008B500023181C3CBC904699466F
:100D3000A246AB46F0BDA123DB00904683469C460D
:100D4000B1461368002BFCD043461D605B466646E7
:100D5000CD508E59637CB2465046E7685E00F05332
:100D60000133267CDBB263749E4216D9A3685B68AC
:100D7000002B09D04846A3601B680B505B4601203E
:100D8000C85001230B60DCE748466368A3601B681A
:100D90000B505B460120C850D3E70123A374002306
:100DA000C2E7C046EC0400200070004004050000CB
:100DB00000710040F0B5264A85B0D468002C33D0CD
:100DC000A0200025A126234B2349C0001D600D5003
:100DD000537CF6008F595E0037530133167CDBB22B
:100DE0005374B3420CD293685B68002B14D09360A9
:100DF0001A681A4BCA5001230B500B6005B0F0BDA6
:100E0000C220012380000B5001A893740570446038
:100E1000068113689847F1E7536893601A680F4B8F
:100E2000CA5001230B50E9E70A4BC2201C60012382
:100E3000094980000B50F930FF300C50A12401A863
:100E40000370E40009599374818013689847D5E7CB
:100E5000EC04002000710040007000400405000018
:100E600010B50D4C85202378002B00D010BD636099
:100E7000A3602361E360094B1B68DB0703D40020F8
:100E8000032100F091F8A32280210123D200C9059B
:100E90008B5000202370E9E70005002000E100E00E
:100EA00038B51B4D041CAB78002B0ED0002802D0A7
:100EB0004368012098470020FFF7C8FEEB68002038
:100EC0000133EB60FFF7CAFE38BD0020FFF7BEFE1E
:100ED000002C0DD02A69002A08D0944208D0131C97
:100EE00001E09C4204D01B68002BFAD122602C61E7
:100EF000EB68002BE2D1074A02211360C123053AB7
:100F00009B00FF3AD1500122034B1A60D6E7C0463E
:100F100000050020040100400800004083238022D7
:100F2000DB00D205D058C003C00F704710B51B4B73
:100F30001A68002A1BD11A4B1A68002A00D110BD6A
:100F400000221A60C223802202219B00D205D150C8
:100F50000123144CA3702369002BF0D01A680120E0
:100F600022615B6898472369002BF7D1E7E70022ED
:100F700080211A60C22201230A4C9200C9058B50BD
:100F80006370A368002BD6D01A680020A2605B684B
:100F90009847A368002BF7D1CDE7C0460001004079
:100FA0000401004000050020F0B5002820DBFF27E9
:100FB0001B4B03229C463B1C8408C026C0B2024047
:100FC000D2009340A4006444B600A5599D438B0110
:100FD0003B409340191C2943A1511F2318401E3B3D
:100FE0008340C022181C0E4B520098501860F0BD70
:100FF000FF260C4A03249446321C0F23C0B204403F
:10100000E400A2400340083B9B089B006344DD6969
:1010100095438A013240A240111C2943D961DCE783
:1010200000E100E000ED00E0F8B54F464646C0B4F0
:101030000679494DF400A31B9B00EB18DF7E914617
:101040000823002F04D0181C0CBC90469946F8BD0C
:101050000F687B1C0CD00123A122BB40A027D2002B
:10106000FF05BB5003220B68C133FF339B00DA51ED
:101070004B685A1C06D0A0270022C133FF339B00C7
:10108000FF05DA5107688A69344BFA500F7D4B7DB2
:1010900002683B43324FD3510A6803689446314F8C
:1010A0004A68DA516246304FDA510B7D012B2CD061
:1010B0004A46A31B9B00071CE81842600869E850D9
:1010C000002A12D08E22002338685200097F8350F4
:1010D000386828328350C1233868244A9B00C250A4
:1010E0003B68180B40B2FFF75FFFA02304213A686A
:1010F000DB00D15000230121A41BA4002C19E375AF
:101100002376A375E176A3769DE78B685A1C06D0FB
:10111000A0270022C133FF339B00FF05DA51CB68C3
:101120005A1C0ED001279F40A1223B1CA027D200B1
:10113000FF05BB500322CB68C133FF339B00DA515C
:10114000CB688A6807689446A122D200BB50A223CC
:101150006246DB00FA50ABE71405002024050000CE
:101160006C050000140500000C0500008000020062
:10117000F0B55F4656464D464446A0230022F0B4E3
:101180000168DB000779CA50334B83B09C46FB00F3
:10119000DA1B920062445268002A0DD0C222046811
:1011A0002E499200A150012102682D4CD203D20E8B
:1011B00091400A1C8021625002682A49A226555893
:1011C0008A462949F6008B465158B0460091A12124
:1011D000C9008946515896595C46019601267642C7
:1011E000165154461651026848461650404616504D
:1011F0006A1C06D0A0220220C135FF35AD00D20501
:10120000A850009C621C06D0A0220220C134FF34EA
:10121000A400D205A050019A501C06D0A0200224A0
:10122000C132FF329200C00514504A1C06D0A022E1
:101230000220C131FF318900D20588500022DB1B1A
:101240009B006344DA765A6003B03CBC90469946F2
:10125000A246AB46F0BDC046140500208402020041
:1012600000E100E00C05000014050000C12310B5EA
:10127000614A9B00D35884B09B054FD592235B00F5
:10128000D15800294AD00021D1508121E53389006D
:10129000FF33D150594B997E002901D10131516062
:1012A000022269460A7090215348C90042584250B0
:1012B00069460392DA7D68460A72DA681968019213
:1012C0000022DA751A765B6898478E214A4A4900EF
:1012D0005358002B0FD0494B9C8A987D84424FD2A3
:1012E00000205050998A9868405C998A013189B2EF
:1012F0009982434BD050A2233F4A5B00D15800292A
:101300000AD00021D1503D4B997E002901D0012106
:101310001160DA7D002A42D104B010BDC123364AE3
:101320009B00D3585B07D0D5842149005358002B2C
:10133000CBD0324BD87D00283ED15050A321C900DC
:1013400052585A7E8242C0D11A7E002A42D19A7ED9
:10135000002A02D10121284A51608120C222264957
:10136000800092008850002268460121DA755A7E7A
:1013700001700272DA68196801925B689847A4E705
:10138000002454500028B6D06A46147010729A682F
:101390009C75196801925B6868469847ABE7002224
:1013A00068460121DA755A7E01700272DA6819689E
:1013B00001925B689847AFE700205050A320C0001F
:1013C000597E1258D86842545A7ED87D0132D2B222
:1013D0005A76B6E7DA751A69D968DA6000226C467F
:1013E000587E1A765A76013220720191227019685D
:1013F00068465B68984768E70020004014050020B5
:101400001C050000A02210B5074BD205D15880233F
:101410009B031C1CA1200B408C430449C0001450AA
:101420005350FFF757FC10BD040500000C050000E9
:1014300010B50378002B00D010BD0C480621FFF733
:101440004FFC00280ED1A022094BD205D158802391
:10145000DB031C1CA1208C430B400649C000145028
:101460005350E9E7FFF7C8FBEDE7C046AC050020A5
:10147000040500000C05000030B5F020A025002375
:101480000121032483B04004ED050133202B0BD050
:10149000021C1A411142F8D01A1CC132FF329200CC
:1014A00001335451202BF3D1A023F021A122DB05DD
:1014B0004904D20099500021304A01A899500323D1
:1014C0002F490370FFF7D4FB002848D11C250824BE
:1014D0002C480378AB4323430370FFF7E9FB2A480A
:1014E0000378AB4323430370FFF7E2FB27480378FD
:1014F000AB431C430470FFF7DBFB0322244B1A7041
:10150000FFF7AEFC002827D10020FFF7C9FCFFF74A
:1015100005FD0028FBD0002005211E4A0023FFF70F
:1015200047F9002827D11C4801211C4AFFF798F9E8
:1015300000281DD1A4211A4849000022FFF7AAF96A
:10154000002812D117480621FFF7CAFB002809D14D
:1015500020BF40BF20BFFBE7FFF74EFBD4E7FFF7FC
:101560004BFBB3E7FFF748FBF2E7FFF745FBE9E783
:10157000FFF742FBDEE7FFF73FFBD4E70C05000077
:101580003114000078000020700000206800002066
:101590003005002034050020481700000514000025
:1015A000B8050020AC05002003210A4802680A4360
:1015B0000260094802680A4302600849084A094B68
:1015C0009B1A03DD043BC858D050FBDC00F012F836
:1015D000FEF7A6FD24050040540500405817000002
:1015E0000000002090000020FEE7FEE7FEE7FEE797
:1015F000FEE7FEE7304B1B78012B00D070472F4BE6
:101600001B681B07FAD1F0222D4B1B68134027D112
:101610002C4B1B68134229D0284B1B681B07EDD1AC
:10162000F022274B1B681340402B32D0244B1A6802
:10163000F0231340A02B01D0D02BDFD1214B1A680F
:10164000F0231A42DAD1204A1368012B04D01F4B31
:1016500013601368012BFCD1C0221D4B1A60CDE72B
:10166000102B0FD1174B1B681342D9D1194A1A4BB3
:101670001A608022194B12021A600F4B1B78012B43
:10168000CAD0BBE7302BCBD10E4B1B681342C7D15E
:10169000ECE70C4B1B681342C8D1C1238022012107
:1016A000DB00D205D150044B1B78012BA6D1034B94
:1016B0001B681B07BAD0A1E7E00F00F0E40F00F0B1
:1016C000E80F00F0EC0F00F000EC0640759300000E
:1016D00014EC0640DFFF07C004050040186C004012
:1016E000F8B5C046F8BC08BC9E467047F8B5C04681
:1016F000F8BC08BC9E467047430000000000002074
:10170000FFFFFFFFFFFFFFFFFFFFFFFFFFFFFFFFE9
:10171000000000000000000000E0D701030000000E
:101720004F766572666C6F770D0A00004150505F0E
:101730004552524F523A4552524F523A46617461A5
:101740006C0D0A0003000000B80500200000000036
:08175000D0E9FF7F0100000059
:101758000000000000000000000000000000000081
:101768000000000000000000000000000000000071
:10177800F816000000000000000000000000000053
:101788000000000000000000000000000000000051
:101798000000000000000000000000000000000041
:1017A8000000000000000000000000000000000031
:1017B800002000400000000002800000000000003F
:1017C80002400000000000000204000000000000C9
:1017D8000024F400E9000000C1000000000000003F
:04000003000015A93B
:00000001FF
